{
  "_format": "hh-sol-artifact-1",
  "contractName": "HashplayWithdraw",
  "sourceName": "contracts/HashplayWithdraw.sol",
  "abi": [
    {
      "inputs": [],
      "stateMutability": "nonpayable",
      "type": "constructor"
    },
    {
      "stateMutability": "payable",
      "type": "fallback"
    },
    {
      "inputs": [],
      "name": "owner",
      "outputs": [
        {
          "internalType": "address",
          "name": "",
          "type": "address"
        }
      ],
      "stateMutability": "view",
      "type": "function"
    },
    {
      "inputs": [],
      "name": "withdrawAllHBAR",
      "outputs": [],
      "stateMutability": "nonpayable",
      "type": "function"
    },
    {
      "stateMutability": "payable",
      "type": "receive"
    }
  ],
  "bytecode": "0x608060405234801561001057600080fd5b50336000806101000a81548173ffffffffffffffffffffffffffffffffffffffff021916908373ffffffffffffffffffffffffffffffffffffffff160217905550610470806100606000396000f3fe60806040526004361061002d5760003560e01c80638da5cb5b14610036578063e480dd871461006157610034565b3661003457005b005b34801561004257600080fd5b5061004b610078565b6040516100589190610284565b60405180910390f35b34801561006d57600080fd5b5061007661009c565b005b60008054906101000a900473ffffffffffffffffffffffffffffffffffffffff1681565b60008054906101000a900473ffffffffffffffffffffffffffffffffffffffff1673ffffffffffffffffffffffffffffffffffffffff163373ffffffffffffffffffffffffffffffffffffffff161461012a576040517f08c379a0000000000000000000000000000000000000000000000000000000008152600401610121906102fc565b60405180910390fd5b600047905060008111610172576040517f08c379a000000000000000000000000000000000000000000000000000000000815260040161016990610368565b60405180910390fd5b60008060009054906101000a900473ffffffffffffffffffffffffffffffffffffffff1673ffffffffffffffffffffffffffffffffffffffff16826040516101b9906103b9565b60006040518083038185875af1925050503d80600081146101f6576040519150601f19603f3d011682016040523d82523d6000602084013e6101fb565b606091505b505090508061023f576040517f08c379a00000000000000000000000000000000000000000000000000000000081526004016102369061041a565b60405180910390fd5b5050565b600073ffffffffffffffffffffffffffffffffffffffff82169050919050565b600061026e82610243565b9050919050565b61027e81610263565b82525050565b60006020820190506102996000830184610275565b92915050565b600082825260208201905092915050565b7f4e6f74206f776e65720000000000000000000000000000000000000000000000600082015250565b60006102e660098361029f565b91506102f1826102b0565b602082019050919050565b60006020820190508181036000830152610315816102d9565b9050919050565b7f4e6f204842415220746f20776974686472617700000000000000000000000000600082015250565b600061035260138361029f565b915061035d8261031c565b602082019050919050565b6000602082019050818103600083015261038181610345565b9050919050565b600081905092915050565b50565b60006103a3600083610388565b91506103ae82610393565b600082019050919050565b60006103c482610396565b9150819050919050565b7f5472616e73666572206661696c65640000000000000000000000000000000000600082015250565b6000610404600f8361029f565b915061040f826103ce565b602082019050919050565b60006020820190508181036000830152610433816103f7565b905091905056fea264697066735822122025e1cad99056c6ceb6cf0877bf25ece17c91580dc51db7e7b98591770d0a7ef564736f6c63430008140033",
  "linkReferences": {},
  "deployedLinkReferences": {}
}