{"contracts/HashplayGame.sol":{"HashplayGame":{"abi":[{"inputs":[{"internalType":"address","name":"_hashplayToken","type":"address"}],"stateMutability":"nonpayable","type":"constructor"},{"anonymous":false,"inputs":[{"indexed":true,"internalType":"address","name":"player","type":"address"},{"indexed":false,"internalType":"uint256","name":"wager","type":"uint256"},{"indexed":false,"internalType":"bool","name":"won","type":"bool"},{"indexed":false,"internalType":"uint256","name":"hbarPayout","type":"uint256"},{"indexed":false,"internalType":"uint256","name":"hashplayReward","type":"uint256"}],"name":"GameResult","type":"event"},{"stateMutability":"payable","type":"fallback"},{"inputs":[],"name":"LOSE_HASHPLAY_REWARD","outputs":[{"internalType":"uint256","name":"","type":"uint256"}],"stateMutability":"view","type":"function"},{"inputs":[],"name":"WIN_HASHPLAY_REWARD","outputs":[{"internalType":"uint256","name":"","type":"uint256"}],"stateMutability":"view","type":"function"},{"inputs":[],"name":"fundBankroll","outputs":[],"stateMutability":"payable","type":"function"},{"inputs":[],"name":"hashplayToken","outputs":[{"internalType":"address","name":"","type":"address"}],"stateMutability":"view","type":"function"},{"inputs":[],"name":"owner","outputs":[{"internalType":"address","name":"","type":"address"}],"stateMutability":"view","type":"function"},{"inputs":[],"name":"play","outputs":[],"stateMutability":"payable","type":"function"},{"inputs":[{"internalType":"address","name":"_newToken","type":"address"}],"name":"updateToken","outputs":[],"stateMutability":"nonpayable","type":"function"},{"inputs":[{"internalType":"uint256","name":"amount","type":"uint256"}],"name":"withdrawHBAR","outputs":[],"stateMutability":"nonpayable","type":"function"},{"inputs":[{"internalType":"uint256","name":"amount","type":"uint256"}],"name":"withdrawTokens","outputs":[],"stateMutability":"nonpayable","type":"function"},{"stateMutability":"payable","type":"receive"}],"evm":{"bytecode":{"linkReferences":{},"object":"608060405234801561001057600080fd5b506040516200105d3803806200105d8339818101604052810190610034919061011e565b336000806101000a81548173ffffffffffffffffffffffffffffffffffffffff021916908373ffffffffffffffffffffffffffffffffffffffff16021790555080600160006101000a81548173ffffffffffffffffffffffffffffffffffffffff021916908373ffffffffffffffffffffffffffffffffffffffff1602179055505061014b565b600080fd5b600073ffffffffffffffffffffffffffffffffffffffff82169050919050565b60006100eb826100c0565b9050919050565b6100fb816100e0565b811461010657600080fd5b50565b600081519050610118816100f2565b92915050565b600060208284031215610134576101336100bb565b5b600061014284828501610109565b91505092915050565b610f02806200015b6000396000f3fe60806040526004361061008a5760003560e01c80637ad3def2116100595780637ad3def21461011c5780638da5cb5b1461014557806393e84cd9146101705780639bdfb4331461017a578063a9a0c7ff146101a557610091565b8063315a095d146100935780633d311667146100bc578063408458bb146100e7578063753fab131461011257610091565b3661009157005b005b34801561009f57600080fd5b506100ba60048036038101906100b5919061092d565b6101ce565b005b3480156100c857600080fd5b506100d1610320565b6040516100de919061099b565b60405180910390f35b3480156100f357600080fd5b506100fc610346565b60405161010991906109c5565b60405180910390f35b61011a61034f565b005b34801561012857600080fd5b50610143600480360381019061013e9190610a0c565b6103df565b005b34801561015157600080fd5b5061015a6104b1565b604051610167919061099b565b60405180910390f35b6101786104d5565b005b34801561018657600080fd5b5061018f61067c565b60405161019c91906109c5565b60405180910390f35b3480156101b157600080fd5b506101cc60048036038101906101c7919061092d565b610685565b005b60008054906101000a900473ffffffffffffffffffffffffffffffffffffffff1673ffffffffffffffffffffffffffffffffffffffff163373ffffffffffffffffffffffffffffffffffffffff161461025c576040517f08c379a000000000000000000000000000000000000000000000000000000000815260040161025390610a96565b60405180910390fd5b600160009054906101000a900473ffffffffffffffffffffffffffffffffffffffff1673ffffffffffffffffffffffffffffffffffffffff1663a9059cbb60008054906101000a900473ffffffffffffffffffffffffffffffffffffffff16836040518363ffffffff1660e01b81526004016102d9929190610ab6565b6020604051808303816000875af11580156102f8573d6000803e3d6000fd5b505050506040513d601f19601f8201168201806040525081019061031c9190610b17565b5050565b600160009054906101000a900473ffffffffffffffffffffffffffffffffffffffff1681565b640ba43b740081565b60008054906101000a900473ffffffffffffffffffffffffffffffffffffffff1673ffffffffffffffffffffffffffffffffffffffff163373ffffffffffffffffffffffffffffffffffffffff16146103dd576040517f08c379a00000000000000000000000000000000000000000000000000000000081526004016103d490610a96565b60405180910390fd5b565b60008054906101000a900473ffffffffffffffffffffffffffffffffffffffff1673ffffffffffffffffffffffffffffffffffffffff163373ffffffffffffffffffffffffffffffffffffffff161461046d576040517f08c379a000000000000000000000000000000000000000000000000000000000815260040161046490610a96565b60405180910390fd5b80600160006101000a81548173ffffffffffffffffffffffffffffffffffffffff021916908373ffffffffffffffffffffffffffffffffffffffff16021790555050565b60008054906101000a900473ffffffffffffffffffffffffffffffffffffffff1681565b60003411610518576040517f08c379a000000000000000000000000000000000000000000000000000000000815260040161050f90610b90565b60405180910390fd5b60006002424433346040516020016105339493929190610c19565b6040516020818303038152906040528051906020012060001c6105569190610c96565b90506000600182149050600080821561060f576002346105769190610cf6565b9150640ba43b74009050814710156105c3576040517f08c379a00000000000000000000000000000000000000000000000000000000081526004016105ba90610daa565b60405180910390fd5b3373ffffffffffffffffffffffffffffffffffffffff166108fc839081150290604051600060405180830381858888f19350505050158015610609573d6000803e3d6000fd5b50610618565b6404a817c80090505b61062233826107c0565b3373ffffffffffffffffffffffffffffffffffffffff167f2b93076a824b64ee22363ab116d83a15892b815507defda2629b97ed376d0d843485858560405161066e9493929190610dd9565b60405180910390a250505050565b6404a817c80081565b60008054906101000a900473ffffffffffffffffffffffffffffffffffffffff1673ffffffffffffffffffffffffffffffffffffffff163373ffffffffffffffffffffffffffffffffffffffff1614610713576040517f08c379a000000000000000000000000000000000000000000000000000000000815260040161070a90610a96565b60405180910390fd5b80471015610756576040517f08c379a000000000000000000000000000000000000000000000000000000000815260040161074d90610e6a565b60405180910390fd5b60008054906101000a900473ffffffffffffffffffffffffffffffffffffffff1673ffffffffffffffffffffffffffffffffffffffff166108fc829081150290604051600060405180830381858888f193505050501580156107bc573d6000803e3d6000fd5b5050565b6000600160009054906101000a900473ffffffffffffffffffffffffffffffffffffffff16905060008173ffffffffffffffffffffffffffffffffffffffff166370a08231306040518263ffffffff1660e01b8152600401610822919061099b565b602060405180830381865afa15801561083f573d6000803e3d6000fd5b505050506040513d601f19601f820116820180604052508101906108639190610e9f565b90508281106108ec578173ffffffffffffffffffffffffffffffffffffffff1663a9059cbb85856040518363ffffffff1660e01b81526004016108a7929190610ab6565b6020604051808303816000875af11580156108c6573d6000803e3d6000fd5b505050506040513d601f19601f820116820180604052508101906108ea9190610b17565b505b50505050565b600080fd5b6000819050919050565b61090a816108f7565b811461091557600080fd5b50565b60008135905061092781610901565b92915050565b600060208284031215610943576109426108f2565b5b600061095184828501610918565b91505092915050565b600073ffffffffffffffffffffffffffffffffffffffff82169050919050565b60006109858261095a565b9050919050565b6109958161097a565b82525050565b60006020820190506109b0600083018461098c565b92915050565b6109bf816108f7565b82525050565b60006020820190506109da60008301846109b6565b92915050565b6109e98161097a565b81146109f457600080fd5b50565b600081359050610a06816109e0565b92915050565b600060208284031215610a2257610a216108f2565b5b6000610a30848285016109f7565b91505092915050565b600082825260208201905092915050565b7f4e6f74206f776e65720000000000000000000000000000000000000000000000600082015250565b6000610a80600983610a39565b9150610a8b82610a4a565b602082019050919050565b60006020820190508181036000830152610aaf81610a73565b9050919050565b6000604082019050610acb600083018561098c565b610ad860208301846109b6565b9392505050565b60008115159050919050565b610af481610adf565b8114610aff57600080fd5b50565b600081519050610b1181610aeb565b92915050565b600060208284031215610b2d57610b2c6108f2565b5b6000610b3b84828501610b02565b91505092915050565b7f5761676572206d757374206265203e2030000000000000000000000000000000600082015250565b6000610b7a601183610a39565b9150610b8582610b44565b602082019050919050565b60006020820190508181036000830152610ba981610b6d565b9050919050565b6000819050919050565b610bcb610bc6826108f7565b610bb0565b82525050565b60008160601b9050919050565b6000610be982610bd1565b9050919050565b6000610bfb82610bde565b9050919050565b610c13610c0e8261097a565b610bf0565b82525050565b6000610c258287610bba565b602082019150610c358286610bba565b602082019150610c458285610c02565b601482019150610c558284610bba565b60208201915081905095945050505050565b7f4e487b7100000000000000000000000000000000000000000000000000000000600052601260045260246000fd5b6000610ca1826108f7565b9150610cac836108f7565b925082610cbc57610cbb610c67565b5b828206905092915050565b7f4e487b7100000000000000000000000000000000000000000000000000000000600052601160045260246000fd5b6000610d01826108f7565b9150610d0c836108f7565b9250828202610d1a816108f7565b91508282048414831517610d3157610d30610cc7565b5b5092915050565b7f496e73756666696369656e7420636f6e74726163742062616c616e636520666f60008201527f72207061796f7574000000000000000000000000000000000000000000000000602082015250565b6000610d94602883610a39565b9150610d9f82610d38565b604082019050919050565b60006020820190508181036000830152610dc381610d87565b9050919050565b610dd381610adf565b82525050565b6000608082019050610dee60008301876109b6565b610dfb6020830186610dca565b610e0860408301856109b6565b610e1560608301846109b6565b95945050505050565b7f496e73756666696369656e742062616c616e6365000000000000000000000000600082015250565b6000610e54601483610a39565b9150610e5f82610e1e565b602082019050919050565b60006020820190508181036000830152610e8381610e47565b9050919050565b600081519050610e9981610901565b92915050565b600060208284031215610eb557610eb46108f2565b5b6000610ec384828501610e8a565b9150509291505056fea2646970667358221220778ed44d2f7c443b2fc3d3e4788c56c78d09609dddc42f2b588623b9a2f98b7864736f6c63430008140033","opcodes":"PUSH1 0x80 PUSH1 0x40 MSTORE CALLVALUE DUP1 ISZERO PUSH2 0x10 JUMPI PUSH1 0x0 DUP1 REVERT JUMPDEST POP PUSH1 0x40 MLOAD PUSH3 0x105D CODESIZE SUB DUP1 PUSH3 0x105D DUP4 CODECOPY DUP2 DUP2 ADD PUSH1 0x40 MSTORE DUP2 ADD SWAP1 PUSH2 0x34 SWAP2 SWAP1 PUSH2 0x11E JUMP JUMPDEST CALLER PUSH1 0x0 DUP1 PUSH2 0x100 EXP DUP2 SLOAD DUP2 PUSH20 0xFFFFFFFFFFFFFFFFFFFFFFFFFFFFFFFFFFFFFFFF MUL NOT AND SWAP1 DUP4 PUSH20 0xFFFFFFFFFFFFFFFFFFFFFFFFFFFFFFFFFFFFFFFF AND MUL OR SWAP1 SSTORE POP DUP1 PUSH1 0x1 PUSH1 0x0 PUSH2 0x100 EXP DUP2 SLOAD DUP2 PUSH20 0xFFFFFFFFFFFFFFFFFFFFFFFFFFFFFFFFFFFFFFFF MUL NOT AND SWAP1 DUP4 PUSH20 0xFFFFFFFFFFFFFFFFFFFFFFFFFFFFFFFFFFFFFFFF AND MUL OR SWAP1 SSTORE POP POP PUSH2 0x14B JUMP JUMPDEST PUSH1 0x0 DUP1 REVERT JUMPDEST PUSH1 0x0 PUSH20 0xFFFFFFFFFFFFFFFFFFFFFFFFFFFFFFFFFFFFFFFF DUP3 AND SWAP1 POP SWAP2 SWAP1 POP JUMP JUMPDEST PUSH1 0x0 PUSH2 0xEB DUP3 PUSH2 0xC0 JUMP JUMPDEST SWAP1 POP SWAP2 SWAP1 POP JUMP JUMPDEST PUSH2 0xFB DUP2 PUSH2 0xE0 JUMP JUMPDEST DUP2 EQ PUSH2 0x106 JUMPI PUSH1 0x0 DUP1 REVERT JUMPDEST POP JUMP JUMPDEST PUSH1 0x0 DUP2 MLOAD SWAP1 POP PUSH2 0x118 DUP2 PUSH2 0xF2 JUMP JUMPDEST SWAP3 SWAP2 POP POP JUMP JUMPDEST PUSH1 0x0 PUSH1 0x20 DUP3 DUP5 SUB SLT ISZERO PUSH2 0x134 JUMPI PUSH2 0x133 PUSH2 0xBB JUMP JUMPDEST JUMPDEST PUSH1 0x0 PUSH2 0x142 DUP5 DUP3 DUP6 ADD PUSH2 0x109 JUMP JUMPDEST SWAP2 POP POP SWAP3 SWAP2 POP POP JUMP JUMPDEST PUSH2 0xF02 DUP1 PUSH3 0x15B PUSH1 0x0 CODECOPY PUSH1 0x0 RETURN INVALID PUSH1 0x80 PUSH1 0x40 MSTORE PUSH1 0x4 CALLDATASIZE LT PUSH2 0x8A JUMPI PUSH1 0x0 CALLDATALOAD PUSH1 0xE0 SHR DUP1 PUSH4 0x7AD3DEF2 GT PUSH2 0x59 JUMPI DUP1 PUSH4 0x7AD3DEF2 EQ PUSH2 0x11C JUMPI DUP1 PUSH4 0x8DA5CB5B EQ PUSH2 0x145 JUMPI DUP1 PUSH4 0x93E84CD9 EQ PUSH2 0x170 JUMPI DUP1 PUSH4 0x9BDFB433 EQ PUSH2 0x17A JUMPI DUP1 PUSH4 0xA9A0C7FF EQ PUSH2 0x1A5 JUMPI PUSH2 0x91 JUMP JUMPDEST DUP1 PUSH4 0x315A095D EQ PUSH2 0x93 JUMPI DUP1 PUSH4 0x3D311667 EQ PUSH2 0xBC JUMPI DUP1 PUSH4 0x408458BB EQ PUSH2 0xE7 JUMPI DUP1 PUSH4 0x753FAB13 EQ PUSH2 0x112 JUMPI PUSH2 0x91 JUMP JUMPDEST CALLDATASIZE PUSH2 0x91 JUMPI STOP JUMPDEST STOP JUMPDEST CALLVALUE DUP1 ISZERO PUSH2 0x9F JUMPI PUSH1 0x0 DUP1 REVERT JUMPDEST POP PUSH2 0xBA PUSH1 0x4 DUP1 CALLDATASIZE SUB DUP2 ADD SWAP1 PUSH2 0xB5 SWAP2 SWAP1 PUSH2 0x92D JUMP JUMPDEST PUSH2 0x1CE JUMP JUMPDEST STOP JUMPDEST CALLVALUE DUP1 ISZERO PUSH2 0xC8 JUMPI PUSH1 0x0 DUP1 REVERT JUMPDEST POP PUSH2 0xD1 PUSH2 0x320 JUMP JUMPDEST PUSH1 0x40 MLOAD PUSH2 0xDE SWAP2 SWAP1 PUSH2 0x99B JUMP JUMPDEST PUSH1 0x40 MLOAD DUP1 SWAP2 SUB SWAP1 RETURN JUMPDEST CALLVALUE DUP1 ISZERO PUSH2 0xF3 JUMPI PUSH1 0x0 DUP1 REVERT JUMPDEST POP PUSH2 0xFC PUSH2 0x346 JUMP JUMPDEST PUSH1 0x40 MLOAD PUSH2 0x109 SWAP2 SWAP1 PUSH2 0x9C5 JUMP JUMPDEST PUSH1 0x40 MLOAD DUP1 SWAP2 SUB SWAP1 RETURN JUMPDEST PUSH2 0x11A PUSH2 0x34F JUMP JUMPDEST STOP JUMPDEST CALLVALUE DUP1 ISZERO PUSH2 0x128 JUMPI PUSH1 0x0 DUP1 REVERT JUMPDEST POP PUSH2 0x143 PUSH1 0x4 DUP1 CALLDATASIZE SUB DUP2 ADD SWAP1 PUSH2 0x13E SWAP2 SWAP1 PUSH2 0xA0C JUMP JUMPDEST PUSH2 0x3DF JUMP JUMPDEST STOP JUMPDEST CALLVALUE DUP1 ISZERO PUSH2 0x151 JUMPI PUSH1 0x0 DUP1 REVERT JUMPDEST POP PUSH2 0x15A PUSH2 0x4B1 JUMP JUMPDEST PUSH1 0x40 MLOAD PUSH2 0x167 SWAP2 SWAP1 PUSH2 0x99B JUMP JUMPDEST PUSH1 0x40 MLOAD DUP1 SWAP2 SUB SWAP1 RETURN JUMPDEST PUSH2 0x178 PUSH2 0x4D5 JUMP JUMPDEST STOP JUMPDEST CALLVALUE DUP1 ISZERO PUSH2 0x186 JUMPI PUSH1 0x0 DUP1 REVERT JUMPDEST POP PUSH2 0x18F PUSH2 0x67C JUMP JUMPDEST PUSH1 0x40 MLOAD PUSH2 0x19C SWAP2 SWAP1 PUSH2 0x9C5 JUMP JUMPDEST PUSH1 0x40 MLOAD DUP1 SWAP2 SUB SWAP1 RETURN JUMPDEST CALLVALUE DUP1 ISZERO PUSH2 0x1B1 JUMPI PUSH1 0x0 DUP1 REVERT JUMPDEST POP PUSH2 0x1CC PUSH1 0x4 DUP1 CALLDATASIZE SUB DUP2 ADD SWAP1 PUSH2 0x1C7 SWAP2 SWAP1 PUSH2 0x92D JUMP JUMPDEST PUSH2 0x685 JUMP JUMPDEST STOP JUMPDEST PUSH1 0x0 DUP1 SLOAD SWAP1 PUSH2 0x100 EXP SWAP1 DIV PUSH20 0xFFFFFFFFFFFFFFFFFFFFFFFFFFFFFFFFFFFFFFFF AND PUSH20 0xFFFFFFFFFFFFFFFFFFFFFFFFFFFFFFFFFFFFFFFF AND CALLER PUSH20 0xFFFFFFFFFFFFFFFFFFFFFFFFFFFFFFFFFFFFFFFF AND EQ PUSH2 0x25C JUMPI PUSH1 0x40 MLOAD PUSH32 0x8C379A000000000000000000000000000000000000000000000000000000000 DUP2 MSTORE PUSH1 0x4 ADD PUSH2 0x253 SWAP1 PUSH2 0xA96 JUMP JUMPDEST PUSH1 0x40 MLOAD DUP1 SWAP2 SUB SWAP1 REVERT JUMPDEST PUSH1 0x1 PUSH1 0x0 SWAP1 SLOAD SWAP1 PUSH2 0x100 EXP SWAP1 DIV PUSH20 0xFFFFFFFFFFFFFFFFFFFFFFFFFFFFFFFFFFFFFFFF AND PUSH20 0xFFFFFFFFFFFFFFFFFFFFFFFFFFFFFFFFFFFFFFFF AND PUSH4 0xA9059CBB PUSH1 0x0 DUP1 SLOAD SWAP1 PUSH2 0x100 EXP SWAP1 DIV PUSH20 0xFFFFFFFFFFFFFFFFFFFFFFFFFFFFFFFFFFFFFFFF AND DUP4 PUSH1 0x40 MLOAD DUP4 PUSH4 0xFFFFFFFF AND PUSH1 0xE0 SHL DUP2 MSTORE PUSH1 0x4 ADD PUSH2 0x2D9 SWAP3 SWAP2 SWAP1 PUSH2 0xAB6 JUMP JUMPDEST PUSH1 0x20 PUSH1 0x40 MLOAD DUP1 DUP4 SUB DUP2 PUSH1 0x0 DUP8 GAS CALL ISZERO DUP1 ISZERO PUSH2 0x2F8 JUMPI RETURNDATASIZE PUSH1 0x0 DUP1 RETURNDATACOPY RETURNDATASIZE PUSH1 0x0 REVERT JUMPDEST POP POP POP POP PUSH1 0x40 MLOAD RETURNDATASIZE PUSH1 0x1F NOT PUSH1 0x1F DUP3 ADD AND DUP3 ADD DUP1 PUSH1 0x40 MSTORE POP DUP2 ADD SWAP1 PUSH2 0x31C SWAP2 SWAP1 PUSH2 0xB17 JUMP JUMPDEST POP POP JUMP JUMPDEST PUSH1 0x1 PUSH1 0x0 SWAP1 SLOAD SWAP1 PUSH2 0x100 EXP SWAP1 DIV PUSH20 0xFFFFFFFFFFFFFFFFFFFFFFFFFFFFFFFFFFFFFFFF AND DUP2 JUMP JUMPDEST PUSH5 0xBA43B7400 DUP2 JUMP JUMPDEST PUSH1 0x0 DUP1 SLOAD SWAP1 PUSH2 0x100 EXP SWAP1 DIV PUSH20 0xFFFFFFFFFFFFFFFFFFFFFFFFFFFFFFFFFFFFFFFF AND PUSH20 0xFFFFFFFFFFFFFFFFFFFFFFFFFFFFFFFFFFFFFFFF AND CALLER PUSH20 0xFFFFFFFFFFFFFFFFFFFFFFFFFFFFFFFFFFFFFFFF AND EQ PUSH2 0x3DD JUMPI PUSH1 0x40 MLOAD PUSH32 0x8C379A000000000000000000000000000000000000000000000000000000000 DUP2 MSTORE PUSH1 0x4 ADD PUSH2 0x3D4 SWAP1 PUSH2 0xA96 JUMP JUMPDEST PUSH1 0x40 MLOAD DUP1 SWAP2 SUB SWAP1 REVERT JUMPDEST JUMP JUMPDEST PUSH1 0x0 DUP1 SLOAD SWAP1 PUSH2 0x100 EXP SWAP1 DIV PUSH20 0xFFFFFFFFFFFFFFFFFFFFFFFFFFFFFFFFFFFFFFFF AND PUSH20 0xFFFFFFFFFFFFFFFFFFFFFFFFFFFFFFFFFFFFFFFF AND CALLER PUSH20 0xFFFFFFFFFFFFFFFFFFFFFFFFFFFFFFFFFFFFFFFF AND EQ PUSH2 0x46D JUMPI PUSH1 0x40 MLOAD PUSH32 0x8C379A000000000000000000000000000000000000000000000000000000000 DUP2 MSTORE PUSH1 0x4 ADD PUSH2 0x464 SWAP1 PUSH2 0xA96 JUMP JUMPDEST PUSH1 0x40 MLOAD DUP1 SWAP2 SUB SWAP1 REVERT JUMPDEST DUP1 PUSH1 0x1 PUSH1 0x0 PUSH2 0x100 EXP DUP2 SLOAD DUP2 PUSH20 0xFFFFFFFFFFFFFFFFFFFFFFFFFFFFFFFFFFFFFFFF MUL NOT AND SWAP1 DUP4 PUSH20 0xFFFFFFFFFFFFFFFFFFFFFFFFFFFFFFFFFFFFFFFF AND MUL OR SWAP1 SSTORE POP POP JUMP JUMPDEST PUSH1 0x0 DUP1 SLOAD SWAP1 PUSH2 0x100 EXP SWAP1 DIV PUSH20 0xFFFFFFFFFFFFFFFFFFFFFFFFFFFFFFFFFFFFFFFF AND DUP2 JUMP JUMPDEST PUSH1 0x0 CALLVALUE GT PUSH2 0x518 JUMPI PUSH1 0x40 MLOAD PUSH32 0x8C379A000000000000000000000000000000000000000000000000000000000 DUP2 MSTORE PUSH1 0x4 ADD PUSH2 0x50F SWAP1 PUSH2 0xB90 JUMP JUMPDEST PUSH1 0x40 MLOAD DUP1 SWAP2 SUB SWAP1 REVERT JUMPDEST PUSH1 0x0 PUSH1 0x2 TIMESTAMP PREVRANDAO CALLER CALLVALUE PUSH1 0x40 MLOAD PUSH1 0x20 ADD PUSH2 0x533 SWAP5 SWAP4 SWAP3 SWAP2 SWAP1 PUSH2 0xC19 JUMP JUMPDEST PUSH1 0x40 MLOAD PUSH1 0x20 DUP2 DUP4 SUB SUB DUP2 MSTORE SWAP1 PUSH1 0x40 MSTORE DUP1 MLOAD SWAP1 PUSH1 0x20 ADD KECCAK256 PUSH1 0x0 SHR PUSH2 0x556 SWAP2 SWAP1 PUSH2 0xC96 JUMP JUMPDEST SWAP1 POP PUSH1 0x0 PUSH1 0x1 DUP3 EQ SWAP1 POP PUSH1 0x0 DUP1 DUP3 ISZERO PUSH2 0x60F JUMPI PUSH1 0x2 CALLVALUE PUSH2 0x576 SWAP2 SWAP1 PUSH2 0xCF6 JUMP JUMPDEST SWAP2 POP PUSH5 0xBA43B7400 SWAP1 POP DUP2 SELFBALANCE LT ISZERO PUSH2 0x5C3 JUMPI PUSH1 0x40 MLOAD PUSH32 0x8C379A000000000000000000000000000000000000000000000000000000000 DUP2 MSTORE PUSH1 0x4 ADD PUSH2 0x5BA SWAP1 PUSH2 0xDAA JUMP JUMPDEST PUSH1 0x40 MLOAD DUP1 SWAP2 SUB SWAP1 REVERT JUMPDEST CALLER PUSH20 0xFFFFFFFFFFFFFFFFFFFFFFFFFFFFFFFFFFFFFFFF AND PUSH2 0x8FC DUP4 SWAP1 DUP2 ISZERO MUL SWAP1 PUSH1 0x40 MLOAD PUSH1 0x0 PUSH1 0x40 MLOAD DUP1 DUP4 SUB DUP2 DUP6 DUP9 DUP9 CALL SWAP4 POP POP POP POP ISZERO DUP1 ISZERO PUSH2 0x609 JUMPI RETURNDATASIZE PUSH1 0x0 DUP1 RETURNDATACOPY RETURNDATASIZE PUSH1 0x0 REVERT JUMPDEST POP PUSH2 0x618 JUMP JUMPDEST PUSH5 0x4A817C800 SWAP1 POP JUMPDEST PUSH2 0x622 CALLER DUP3 PUSH2 0x7C0 JUMP JUMPDEST CALLER PUSH20 0xFFFFFFFFFFFFFFFFFFFFFFFFFFFFFFFFFFFFFFFF AND PUSH32 0x2B93076A824B64EE22363AB116D83A15892B815507DEFDA2629B97ED376D0D84 CALLVALUE DUP6 DUP6 DUP6 PUSH1 0x40 MLOAD PUSH2 0x66E SWAP5 SWAP4 SWAP3 SWAP2 SWAP1 PUSH2 0xDD9 JUMP JUMPDEST PUSH1 0x40 MLOAD DUP1 SWAP2 SUB SWAP1 LOG2 POP POP POP POP JUMP JUMPDEST PUSH5 0x4A817C800 DUP2 JUMP JUMPDEST PUSH1 0x0 DUP1 SLOAD SWAP1 PUSH2 0x100 EXP SWAP1 DIV PUSH20 0xFFFFFFFFFFFFFFFFFFFFFFFFFFFFFFFFFFFFFFFF AND PUSH20 0xFFFFFFFFFFFFFFFFFFFFFFFFFFFFFFFFFFFFFFFF AND CALLER PUSH20 0xFFFFFFFFFFFFFFFFFFFFFFFFFFFFFFFFFFFFFFFF AND EQ PUSH2 0x713 JUMPI PUSH1 0x40 MLOAD PUSH32 0x8C379A000000000000000000000000000000000000000000000000000000000 DUP2 MSTORE PUSH1 0x4 ADD PUSH2 0x70A SWAP1 PUSH2 0xA96 JUMP JUMPDEST PUSH1 0x40 MLOAD DUP1 SWAP2 SUB SWAP1 REVERT JUMPDEST DUP1 SELFBALANCE LT ISZERO PUSH2 0x756 JUMPI PUSH1 0x40 MLOAD PUSH32 0x8C379A000000000000000000000000000000000000000000000000000000000 DUP2 MSTORE PUSH1 0x4 ADD PUSH2 0x74D SWAP1 PUSH2 0xE6A JUMP JUMPDEST PUSH1 0x40 MLOAD DUP1 SWAP2 SUB SWAP1 REVERT JUMPDEST PUSH1 0x0 DUP1 SLOAD SWAP1 PUSH2 0x100 EXP SWAP1 DIV PUSH20 0xFFFFFFFFFFFFFFFFFFFFFFFFFFFFFFFFFFFFFFFF AND PUSH20 0xFFFFFFFFFFFFFFFFFFFFFFFFFFFFFFFFFFFFFFFF AND PUSH2 0x8FC DUP3 SWAP1 DUP2 ISZERO MUL SWAP1 PUSH1 0x40 MLOAD PUSH1 0x0 PUSH1 0x40 MLOAD DUP1 DUP4 SUB DUP2 DUP6 DUP9 DUP9 CALL SWAP4 POP POP POP POP ISZERO DUP1 ISZERO PUSH2 0x7BC JUMPI RETURNDATASIZE PUSH1 0x0 DUP1 RETURNDATACOPY RETURNDATASIZE PUSH1 0x0 REVERT JUMPDEST POP POP JUMP JUMPDEST PUSH1 0x0 PUSH1 0x1 PUSH1 0x0 SWAP1 SLOAD SWAP1 PUSH2 0x100 EXP SWAP1 DIV PUSH20 0xFFFFFFFFFFFFFFFFFFFFFFFFFFFFFFFFFFFFFFFF AND SWAP1 POP PUSH1 0x0 DUP2 PUSH20 0xFFFFFFFFFFFFFFFFFFFFFFFFFFFFFFFFFFFFFFFF AND PUSH4 0x70A08231 ADDRESS PUSH1 0x40 MLOAD DUP3 PUSH4 0xFFFFFFFF AND PUSH1 0xE0 SHL DUP2 MSTORE PUSH1 0x4 ADD PUSH2 0x822 SWAP2 SWAP1 PUSH2 0x99B JUMP JUMPDEST PUSH1 0x20 PUSH1 0x40 MLOAD DUP1 DUP4 SUB DUP2 DUP7 GAS STATICCALL ISZERO DUP1 ISZERO PUSH2 0x83F JUMPI RETURNDATASIZE PUSH1 0x0 DUP1 RETURNDATACOPY RETURNDATASIZE PUSH1 0x0 REVERT JUMPDEST POP POP POP POP PUSH1 0x40 MLOAD RETURNDATASIZE PUSH1 0x1F NOT PUSH1 0x1F DUP3 ADD AND DUP3 ADD DUP1 PUSH1 0x40 MSTORE POP DUP2 ADD SWAP1 PUSH2 0x863 SWAP2 SWAP1 PUSH2 0xE9F JUMP JUMPDEST SWAP1 POP DUP3 DUP2 LT PUSH2 0x8EC JUMPI DUP2 PUSH20 0xFFFFFFFFFFFFFFFFFFFFFFFFFFFFFFFFFFFFFFFF AND PUSH4 0xA9059CBB DUP6 DUP6 PUSH1 0x40 MLOAD DUP4 PUSH4 0xFFFFFFFF AND PUSH1 0xE0 SHL DUP2 MSTORE PUSH1 0x4 ADD PUSH2 0x8A7 SWAP3 SWAP2 SWAP1 PUSH2 0xAB6 JUMP JUMPDEST PUSH1 0x20 PUSH1 0x40 MLOAD DUP1 DUP4 SUB DUP2 PUSH1 0x0 DUP8 GAS CALL ISZERO DUP1 ISZERO PUSH2 0x8C6 JUMPI RETURNDATASIZE PUSH1 0x0 DUP1 RETURNDATACOPY RETURNDATASIZE PUSH1 0x0 REVERT JUMPDEST POP POP POP POP PUSH1 0x40 MLOAD RETURNDATASIZE PUSH1 0x1F NOT PUSH1 0x1F DUP3 ADD AND DUP3 ADD DUP1 PUSH1 0x40 MSTORE POP DUP2 ADD SWAP1 PUSH2 0x8EA SWAP2 SWAP1 PUSH2 0xB17 JUMP JUMPDEST POP JUMPDEST POP POP POP POP JUMP JUMPDEST PUSH1 0x0 DUP1 REVERT JUMPDEST PUSH1 0x0 DUP2 SWAP1 POP SWAP2 SWAP1 POP JUMP JUMPDEST PUSH2 0x90A DUP2 PUSH2 0x8F7 JUMP JUMPDEST DUP2 EQ PUSH2 0x915 JUMPI PUSH1 0x0 DUP1 REVERT JUMPDEST POP JUMP JUMPDEST PUSH1 0x0 DUP2 CALLDATALOAD SWAP1 POP PUSH2 0x927 DUP2 PUSH2 0x901 JUMP JUMPDEST SWAP3 SWAP2 POP POP JUMP JUMPDEST PUSH1 0x0 PUSH1 0x20 DUP3 DUP5 SUB SLT ISZERO PUSH2 0x943 JUMPI PUSH2 0x942 PUSH2 0x8F2 JUMP JUMPDEST JUMPDEST PUSH1 0x0 PUSH2 0x951 DUP5 DUP3 DUP6 ADD PUSH2 0x918 JUMP JUMPDEST SWAP2 POP POP SWAP3 SWAP2 POP POP JUMP JUMPDEST PUSH1 0x0 PUSH20 0xFFFFFFFFFFFFFFFFFFFFFFFFFFFFFFFFFFFFFFFF DUP3 AND SWAP1 POP SWAP2 SWAP1 POP JUMP JUMPDEST PUSH1 0x0 PUSH2 0x985 DUP3 PUSH2 0x95A JUMP JUMPDEST SWAP1 POP SWAP2 SWAP1 POP JUMP JUMPDEST PUSH2 0x995 DUP2 PUSH2 0x97A JUMP JUMPDEST DUP3 MSTORE POP POP JUMP JUMPDEST PUSH1 0x0 PUSH1 0x20 DUP3 ADD SWAP1 POP PUSH2 0x9B0 PUSH1 0x0 DUP4 ADD DUP5 PUSH2 0x98C JUMP JUMPDEST SWAP3 SWAP2 POP POP JUMP JUMPDEST PUSH2 0x9BF DUP2 PUSH2 0x8F7 JUMP JUMPDEST DUP3 MSTORE POP POP JUMP JUMPDEST PUSH1 0x0 PUSH1 0x20 DUP3 ADD SWAP1 POP PUSH2 0x9DA PUSH1 0x0 DUP4 ADD DUP5 PUSH2 0x9B6 JUMP JUMPDEST SWAP3 SWAP2 POP POP JUMP JUMPDEST PUSH2 0x9E9 DUP2 PUSH2 0x97A JUMP JUMPDEST DUP2 EQ PUSH2 0x9F4 JUMPI PUSH1 0x0 DUP1 REVERT JUMPDEST POP JUMP JUMPDEST PUSH1 0x0 DUP2 CALLDATALOAD SWAP1 POP PUSH2 0xA06 DUP2 PUSH2 0x9E0 JUMP JUMPDEST SWAP3 SWAP2 POP POP JUMP JUMPDEST PUSH1 0x0 PUSH1 0x20 DUP3 DUP5 SUB SLT ISZERO PUSH2 0xA22 JUMPI PUSH2 0xA21 PUSH2 0x8F2 JUMP JUMPDEST JUMPDEST PUSH1 0x0 PUSH2 0xA30 DUP5 DUP3 DUP6 ADD PUSH2 0x9F7 JUMP JUMPDEST SWAP2 POP POP SWAP3 SWAP2 POP POP JUMP JUMPDEST PUSH1 0x0 DUP3 DUP3 MSTORE PUSH1 0x20 DUP3 ADD SWAP1 POP SWAP3 SWAP2 POP POP JUMP JUMPDEST PUSH32 0x4E6F74206F776E65720000000000000000000000000000000000000000000000 PUSH1 0x0 DUP3 ADD MSTORE POP JUMP JUMPDEST PUSH1 0x0 PUSH2 0xA80 PUSH1 0x9 DUP4 PUSH2 0xA39 JUMP JUMPDEST SWAP2 POP PUSH2 0xA8B DUP3 PUSH2 0xA4A JUMP JUMPDEST PUSH1 0x20 DUP3 ADD SWAP1 POP SWAP2 SWAP1 POP JUMP JUMPDEST PUSH1 0x0 PUSH1 0x20 DUP3 ADD SWAP1 POP DUP2 DUP2 SUB PUSH1 0x0 DUP4 ADD MSTORE PUSH2 0xAAF DUP2 PUSH2 0xA73 JUMP JUMPDEST SWAP1 POP SWAP2 SWAP1 POP JUMP JUMPDEST PUSH1 0x0 PUSH1 0x40 DUP3 ADD SWAP1 POP PUSH2 0xACB PUSH1 0x0 DUP4 ADD DUP6 PUSH2 0x98C JUMP JUMPDEST PUSH2 0xAD8 PUSH1 0x20 DUP4 ADD DUP5 PUSH2 0x9B6 JUMP JUMPDEST SWAP4 SWAP3 POP POP POP JUMP JUMPDEST PUSH1 0x0 DUP2 ISZERO ISZERO SWAP1 POP SWAP2 SWAP1 POP JUMP JUMPDEST PUSH2 0xAF4 DUP2 PUSH2 0xADF JUMP JUMPDEST DUP2 EQ PUSH2 0xAFF JUMPI PUSH1 0x0 DUP1 REVERT JUMPDEST POP JUMP JUMPDEST PUSH1 0x0 DUP2 MLOAD SWAP1 POP PUSH2 0xB11 DUP2 PUSH2 0xAEB JUMP JUMPDEST SWAP3 SWAP2 POP POP JUMP JUMPDEST PUSH1 0x0 PUSH1 0x20 DUP3 DUP5 SUB SLT ISZERO PUSH2 0xB2D JUMPI PUSH2 0xB2C PUSH2 0x8F2 JUMP JUMPDEST JUMPDEST PUSH1 0x0 PUSH2 0xB3B DUP5 DUP3 DUP6 ADD PUSH2 0xB02 JUMP JUMPDEST SWAP2 POP POP SWAP3 SWAP2 POP POP JUMP JUMPDEST PUSH32 0x5761676572206D757374206265203E2030000000000000000000000000000000 PUSH1 0x0 DUP3 ADD MSTORE POP JUMP JUMPDEST PUSH1 0x0 PUSH2 0xB7A PUSH1 0x11 DUP4 PUSH2 0xA39 JUMP JUMPDEST SWAP2 POP PUSH2 0xB85 DUP3 PUSH2 0xB44 JUMP JUMPDEST PUSH1 0x20 DUP3 ADD SWAP1 POP SWAP2 SWAP1 POP JUMP JUMPDEST PUSH1 0x0 PUSH1 0x20 DUP3 ADD SWAP1 POP DUP2 DUP2 SUB PUSH1 0x0 DUP4 ADD MSTORE PUSH2 0xBA9 DUP2 PUSH2 0xB6D JUMP JUMPDEST SWAP1 POP SWAP2 SWAP1 POP JUMP JUMPDEST PUSH1 0x0 DUP2 SWAP1 POP SWAP2 SWAP1 POP JUMP JUMPDEST PUSH2 0xBCB PUSH2 0xBC6 DUP3 PUSH2 0x8F7 JUMP JUMPDEST PUSH2 0xBB0 JUMP JUMPDEST DUP3 MSTORE POP POP JUMP JUMPDEST PUSH1 0x0 DUP2 PUSH1 0x60 SHL SWAP1 POP SWAP2 SWAP1 POP JUMP JUMPDEST PUSH1 0x0 PUSH2 0xBE9 DUP3 PUSH2 0xBD1 JUMP JUMPDEST SWAP1 POP SWAP2 SWAP1 POP JUMP JUMPDEST PUSH1 0x0 PUSH2 0xBFB DUP3 PUSH2 0xBDE JUMP JUMPDEST SWAP1 POP SWAP2 SWAP1 POP JUMP JUMPDEST PUSH2 0xC13 PUSH2 0xC0E DUP3 PUSH2 0x97A JUMP JUMPDEST PUSH2 0xBF0 JUMP JUMPDEST DUP3 MSTORE POP POP JUMP JUMPDEST PUSH1 0x0 PUSH2 0xC25 DUP3 DUP8 PUSH2 0xBBA JUMP JUMPDEST PUSH1 0x20 DUP3 ADD SWAP2 POP PUSH2 0xC35 DUP3 DUP7 PUSH2 0xBBA JUMP JUMPDEST PUSH1 0x20 DUP3 ADD SWAP2 POP PUSH2 0xC45 DUP3 DUP6 PUSH2 0xC02 JUMP JUMPDEST PUSH1 0x14 DUP3 ADD SWAP2 POP PUSH2 0xC55 DUP3 DUP5 PUSH2 0xBBA JUMP JUMPDEST PUSH1 0x20 DUP3 ADD SWAP2 POP DUP2 SWAP1 POP SWAP6 SWAP5 POP POP POP POP POP JUMP JUMPDEST PUSH32 0x4E487B7100000000000000000000000000000000000000000000000000000000 PUSH1 0x0 MSTORE PUSH1 0x12 PUSH1 0x4 MSTORE PUSH1 0x24 PUSH1 0x0 REVERT JUMPDEST PUSH1 0x0 PUSH2 0xCA1 DUP3 PUSH2 0x8F7 JUMP JUMPDEST SWAP2 POP PUSH2 0xCAC DUP4 PUSH2 0x8F7 JUMP JUMPDEST SWAP3 POP DUP3 PUSH2 0xCBC JUMPI PUSH2 0xCBB PUSH2 0xC67 JUMP JUMPDEST JUMPDEST DUP3 DUP3 MOD SWAP1 POP SWAP3 SWAP2 POP POP JUMP JUMPDEST PUSH32 0x4E487B7100000000000000000000000000000000000000000000000000000000 PUSH1 0x0 MSTORE PUSH1 0x11 PUSH1 0x4 MSTORE PUSH1 0x24 PUSH1 0x0 REVERT JUMPDEST PUSH1 0x0 PUSH2 0xD01 DUP3 PUSH2 0x8F7 JUMP JUMPDEST SWAP2 POP PUSH2 0xD0C DUP4 PUSH2 0x8F7 JUMP JUMPDEST SWAP3 POP DUP3 DUP3 MUL PUSH2 0xD1A DUP2 PUSH2 0x8F7 JUMP JUMPDEST SWAP2 POP DUP3 DUP3 DIV DUP5 EQ DUP4 ISZERO OR PUSH2 0xD31 JUMPI PUSH2 0xD30 PUSH2 0xCC7 JUMP JUMPDEST JUMPDEST POP SWAP3 SWAP2 POP POP JUMP JUMPDEST PUSH32 0x496E73756666696369656E7420636F6E74726163742062616C616E636520666F PUSH1 0x0 DUP3 ADD MSTORE PUSH32 0x72207061796F7574000000000000000000000000000000000000000000000000 PUSH1 0x20 DUP3 ADD MSTORE POP JUMP JUMPDEST PUSH1 0x0 PUSH2 0xD94 PUSH1 0x28 DUP4 PUSH2 0xA39 JUMP JUMPDEST SWAP2 POP PUSH2 0xD9F DUP3 PUSH2 0xD38 JUMP JUMPDEST PUSH1 0x40 DUP3 ADD SWAP1 POP SWAP2 SWAP1 POP JUMP JUMPDEST PUSH1 0x0 PUSH1 0x20 DUP3 ADD SWAP1 POP DUP2 DUP2 SUB PUSH1 0x0 DUP4 ADD MSTORE PUSH2 0xDC3 DUP2 PUSH2 0xD87 JUMP JUMPDEST SWAP1 POP SWAP2 SWAP1 POP JUMP JUMPDEST PUSH2 0xDD3 DUP2 PUSH2 0xADF JUMP JUMPDEST DUP3 MSTORE POP POP JUMP JUMPDEST PUSH1 0x0 PUSH1 0x80 DUP3 ADD SWAP1 POP PUSH2 0xDEE PUSH1 0x0 DUP4 ADD DUP8 PUSH2 0x9B6 JUMP JUMPDEST PUSH2 0xDFB PUSH1 0x20 DUP4 ADD DUP7 PUSH2 0xDCA JUMP JUMPDEST PUSH2 0xE08 PUSH1 0x40 DUP4 ADD DUP6 PUSH2 0x9B6 JUMP JUMPDEST PUSH2 0xE15 PUSH1 0x60 DUP4 ADD DUP5 PUSH2 0x9B6 JUMP JUMPDEST SWAP6 SWAP5 POP POP POP POP POP JUMP JUMPDEST PUSH32 0x496E73756666696369656E742062616C616E6365000000000000000000000000 PUSH1 0x0 DUP3 ADD MSTORE POP JUMP JUMPDEST PUSH1 0x0 PUSH2 0xE54 PUSH1 0x14 DUP4 PUSH2 0xA39 JUMP JUMPDEST SWAP2 POP PUSH2 0xE5F DUP3 PUSH2 0xE1E JUMP JUMPDEST PUSH1 0x20 DUP3 ADD SWAP1 POP SWAP2 SWAP1 POP JUMP JUMPDEST PUSH1 0x0 PUSH1 0x20 DUP3 ADD SWAP1 POP DUP2 DUP2 SUB PUSH1 0x0 DUP4 ADD MSTORE PUSH2 0xE83 DUP2 PUSH2 0xE47 JUMP JUMPDEST SWAP1 POP SWAP2 SWAP1 POP JUMP JUMPDEST PUSH1 0x0 DUP2 MLOAD SWAP1 POP PUSH2 0xE99 DUP2 PUSH2 0x901 JUMP JUMPDEST SWAP3 SWAP2 POP POP JUMP JUMPDEST PUSH1 0x0 PUSH1 0x20 DUP3 DUP5 SUB SLT ISZERO PUSH2 0xEB5 JUMPI PUSH2 0xEB4 PUSH2 0x8F2 JUMP JUMPDEST JUMPDEST PUSH1 0x0 PUSH2 0xEC3 DUP5 DUP3 DUP6 ADD PUSH2 0xE8A JUMP JUMPDEST SWAP2 POP POP SWAP3 SWAP2 POP POP JUMP INVALID LOG2 PUSH5 0x6970667358 0x22 SLT KECCAK256 PUSH24 0x8ED44D2F7C443B2FC3D3E4788C56C78D09609DDDC42F2B58 DUP7 0x23 0xB9 LOG2 0xF9 DUP12 PUSH25 0x64736F6C634300081400330000000000000000000000000000 "},"methodIdentifiers":{"LOSE_HASHPLAY_REWARD()":"9bdfb433","WIN_HASHPLAY_REWARD()":"408458bb","fundBankroll()":"753fab13","hashplayToken()":"3d311667","owner()":"8da5cb5b","play()":"93e84cd9","updateToken(address)":"7ad3def2","withdrawHBAR(uint256)":"a9a0c7ff","withdrawTokens(uint256)":"315a095d"}}}}}