{"contracts/HashplayArenaV2.sol":{"HashplayArenaV2":{"abi":[{"inputs":[{"internalType":"address","name":"_hashplayToken","type":"address"}],"stateMutability":"nonpayable","type":"constructor"},{"inputs":[{"internalType":"address","name":"owner","type":"address"}],"name":"OwnableInvalidOwner","type":"error"},{"inputs":[{"internalType":"address","name":"account","type":"address"}],"name":"OwnableUnauthorizedAccount","type":"error"},{"inputs":[],"name":"ReentrancyGuardReentrantCall","type":"error"},{"anonymous":false,"inputs":[{"indexed":true,"internalType":"address","name":"player","type":"address"},{"indexed":false,"internalType":"uint8","name":"gameType","type":"uint8"},{"indexed":false,"internalType":"uint8","name":"prediction","type":"uint8"},{"indexed":false,"internalType":"uint256","name":"wager","type":"uint256"},{"indexed":false,"internalType":"bool","name":"won","type":"bool"},{"indexed":false,"internalType":"uint256","name":"hbarPayout","type":"uint256"},{"indexed":false,"internalType":"uint256","name":"hashplayReward","type":"uint256"},{"indexed":false,"internalType":"uint256","name":"rollResult","type":"uint256"}],"name":"GameResult","type":"event"},{"anonymous":false,"inputs":[{"indexed":true,"internalType":"address","name":"previousOwner","type":"address"},{"indexed":true,"internalType":"address","name":"newOwner","type":"address"}],"name":"OwnershipTransferred","type":"event"},{"inputs":[],"name":"fundBankroll","outputs":[],"stateMutability":"payable","type":"function"},{"inputs":[],"name":"hashplayToken","outputs":[{"internalType":"address","name":"","type":"address"}],"stateMutability":"view","type":"function"},{"inputs":[],"name":"owner","outputs":[{"internalType":"address","name":"","type":"address"}],"stateMutability":"view","type":"function"},{"inputs":[{"internalType":"uint8","name":"gameType","type":"uint8"},{"internalType":"uint8","name":"prediction","type":"uint8"}],"name":"play","outputs":[],"stateMutability":"payable","type":"function"},{"inputs":[],"name":"renounceOwnership","outputs":[],"stateMutability":"nonpayable","type":"function"},{"inputs":[{"internalType":"address","name":"newOwner","type":"address"}],"name":"transferOwnership","outputs":[],"stateMutability":"nonpayable","type":"function"},{"inputs":[{"internalType":"address","name":"_newToken","type":"address"}],"name":"updateToken","outputs":[],"stateMutability":"nonpayable","type":"function"},{"inputs":[{"internalType":"uint256","name":"amount","type":"uint256"}],"name":"withdrawHBAR","outputs":[],"stateMutability":"nonpayable","type":"function"},{"inputs":[{"internalType":"uint256","name":"amount","type":"uint256"}],"name":"withdrawTokens","outputs":[],"stateMutability":"nonpayable","type":"function"},{"stateMutability":"payable","type":"receive"}],"evm":{"bytecode":{"linkReferences":{},"object":"60806040523480156200001157600080fd5b50604051620019a7380380620019a7833981810160405281019062000037919062000293565b33600073ffffffffffffffffffffffffffffffffffffffff168173ffffffffffffffffffffffffffffffffffffffff1603620000ad5760006040517f1e4fbdf7000000000000000000000000000000000000000000000000000000008152600401620000a49190620002d6565b60405180910390fd5b620000be816200013060201b60201c565b506001620000e1620000d5620001f460201b60201c565b6200021f60201b60201c565b6000018190555080600160006101000a81548173ffffffffffffffffffffffffffffffffffffffff021916908373ffffffffffffffffffffffffffffffffffffffff16021790555050620002f3565b60008060009054906101000a900473ffffffffffffffffffffffffffffffffffffffff169050816000806101000a81548173ffffffffffffffffffffffffffffffffffffffff021916908373ffffffffffffffffffffffffffffffffffffffff1602179055508173ffffffffffffffffffffffffffffffffffffffff168173ffffffffffffffffffffffffffffffffffffffff167f8be0079c531659141344cd1fd0a4f28419497f9722a3daafe3b4186f6b6457e060405160405180910390a35050565b60007f9b779b17422d0df92223018b32b4d1fa46e071723d6817e2486d003becc55f0060001b905090565b6000819050919050565b600080fd5b600073ffffffffffffffffffffffffffffffffffffffff82169050919050565b60006200025b826200022e565b9050919050565b6200026d816200024e565b81146200027957600080fd5b50565b6000815190506200028d8162000262565b92915050565b600060208284031215620002ac57620002ab62000229565b5b6000620002bc848285016200027c565b91505092915050565b620002d0816200024e565b82525050565b6000602082019050620002ed6000830184620002c5565b92915050565b6116a480620003036000396000f3fe60806040526004361061008a5760003560e01c80637ad3def2116100595780637ad3def21461010b5780638da5cb5b14610134578063a9a0c7ff1461015f578063e802c36f14610188578063f2fde38b146101a457610091565b8063315a095d146100965780633d311667146100bf578063715018a6146100ea578063753fab131461010157610091565b3661009157005b600080fd5b3480156100a257600080fd5b506100bd60048036038101906100b89190610e51565b6101cd565b005b3480156100cb57600080fd5b506100d461034a565b6040516100e19190610ebf565b60405180910390f35b3480156100f657600080fd5b506100ff610370565b005b610109610384565b005b34801561011757600080fd5b50610132600480360381019061012d9190610f06565b610386565b005b34801561014057600080fd5b506101496103d2565b6040516101569190610ebf565b60405180910390f35b34801561016b57600080fd5b5061018660048036038101906101819190610e51565b6103fb565b005b6101a2600480360381019061019d9190610f6c565b6104fd565b005b3480156101b057600080fd5b506101cb60048036038101906101c69190610f06565b6108c1565b005b6101d5610947565b6000819050600061016773ffffffffffffffffffffffffffffffffffffffff16600160009054906101000a900473ffffffffffffffffffffffffffffffffffffffff16306102216103d2565b856040516024016102359493929190610fc8565b6040516020818303038152906040527feca36917000000000000000000000000000000000000000000000000000000007bffffffffffffffffffffffffffffffffffffffffffffffffffffffff19166020820180517bffffffffffffffffffffffffffffffffffffffffffffffffffffffff83818316178352505050506040516102bf919061107e565b6000604051808303816000865af19150503d80600081146102fc576040519150601f19603f3d011682016040523d82523d6000602084013e610301565b606091505b5050905080610345576040517f08c379a000000000000000000000000000000000000000000000000000000000815260040161033c906110f2565b60405180910390fd5b505050565b600160009054906101000a900473ffffffffffffffffffffffffffffffffffffffff1681565b610378610947565b61038260006109ce565b565b565b61038e610947565b80600160006101000a81548173ffffffffffffffffffffffffffffffffffffffff021916908373ffffffffffffffffffffffffffffffffffffffff16021790555050565b60008060009054906101000a900473ffffffffffffffffffffffffffffffffffffffff16905090565b610403610947565b80471015610446576040517f08c379a000000000000000000000000000000000000000000000000000000000815260040161043d9061115e565b60405180910390fd5b60006104506103d2565b73ffffffffffffffffffffffffffffffffffffffff1682604051610473906111a4565b60006040518083038185875af1925050503d80600081146104b0576040519150601f19603f3d011682016040523d82523d6000602084013e6104b5565b606091505b50509050806104f9576040517f08c379a00000000000000000000000000000000000000000000000000000000081526004016104f090611205565b60405180910390fd5b5050565b610505610a92565b60003411610548576040517f08c379a000000000000000000000000000000000000000000000000000000000815260040161053f90611271565b60405180910390fd5b60018260ff16148061055d575060028260ff16145b61059c576040517f08c379a0000000000000000000000000000000000000000000000000000000008152600401610593906112dd565b60405180910390fd5b600042443334866040516020016105b795949392919061139c565b6040516020818303038152906040528051906020012060001c9050600080600060018660ff16036106d257600060016006866105f3919061142a565b6105fd919061148a565b9050600060016006600a8861061291906114be565b61061c919061142a565b610626919061148a565b90508082610634919061148a565b925060018760ff161480156106495750600783105b156106575760019450610697565b60028760ff1614801561066a5750600783145b156106785760019450610696565b60038760ff1614801561068b5750600783115b1561069557600194505b5b5b84156106cb5760028760ff16146106ba576002346106b591906114ef565b6106c8565b6004346106c791906114ef565b5b93505b5050610766565b60016064856106e1919061142a565b6106eb919061148a565b9050603181101580156106ff575060348111155b1561070d576000925061074f565b60018560ff16148015610721575060308111155b1561072f576001925061074e565b60028560ff16148015610743575060358110155b1561074d57600192505b5b5b82156107655760023461076291906114ef565b91505b5b6000831561083c574783111561077a574792505b60003373ffffffffffffffffffffffffffffffffffffffff16846040516107a0906111a4565b60006040518083038185875af1925050503d80600081146107dd576040519150601f19603f3d011682016040523d82523d6000602084013e6107e2565b606091505b5050905080610826576040517f08c379a000000000000000000000000000000000000000000000000000000000815260040161081d9061157d565b60405180910390fd5b6101f43461083491906114ef565b91505061084c565b60c83461084991906114ef565b90505b6108563382610ab5565b3373ffffffffffffffffffffffffffffffffffffffff167f3ff1bbfe2ddc910863e4520f9b7ee9b9095d766c1bfa3a544c517bd44b5371e6888834888887896040516108a897969594939291906115d6565b60405180910390a250505050506108bd610d5f565b5050565b6108c9610947565b600073ffffffffffffffffffffffffffffffffffffffff168173ffffffffffffffffffffffffffffffffffffffff160361093b5760006040517f1e4fbdf70000000000000000000000000000000000000000000000000000000081526004016109329190610ebf565b60405180910390fd5b610944816109ce565b50565b61094f610d7a565b73ffffffffffffffffffffffffffffffffffffffff1661096d6103d2565b73ffffffffffffffffffffffffffffffffffffffff16146109cc57610990610d7a565b6040517f118cdaa70000000000000000000000000000000000000000000000000000000081526004016109c39190610ebf565b60405180910390fd5b565b60008060009054906101000a900473ffffffffffffffffffffffffffffffffffffffff169050816000806101000a81548173ffffffffffffffffffffffffffffffffffffffff021916908373ffffffffffffffffffffffffffffffffffffffff1602179055508173ffffffffffffffffffffffffffffffffffffffff168173ffffffffffffffffffffffffffffffffffffffff167f8be0079c531659141344cd1fd0a4f28419497f9722a3daafe3b4186f6b6457e060405160405180910390a35050565b610a9a610d82565b6002610aac610aa7610dc3565b610dee565b60000181905550565b6000811480610b125750600073ffffffffffffffffffffffffffffffffffffffff16600160009054906101000a900473ffffffffffffffffffffffffffffffffffffffff1673ffffffffffffffffffffffffffffffffffffffff16145b610d5b57600081905061016773ffffffffffffffffffffffffffffffffffffffff1683600160009054906101000a900473ffffffffffffffffffffffffffffffffffffffff16604051602401610b69929190611645565b6040516020818303038152906040527f49146bde000000000000000000000000000000000000000000000000000000007bffffffffffffffffffffffffffffffffffffffffffffffffffffffff19166020820180517bffffffffffffffffffffffffffffffffffffffffffffffffffffffff8381831617835250505050604051610bf3919061107e565b6000604051808303816000865af19150503d8060008114610c30576040519150601f19603f3d011682016040523d82523d6000602084013e610c35565b606091505b50505061016773ffffffffffffffffffffffffffffffffffffffff16600160009054906101000a900473ffffffffffffffffffffffffffffffffffffffff16308584604051602401610c8a9493929190610fc8565b6040516020818303038152906040527feca36917000000000000000000000000000000000000000000000000000000007bffffffffffffffffffffffffffffffffffffffffffffffffffffffff19166020820180517bffffffffffffffffffffffffffffffffffffffffffffffffffffffff8381831617835250505050604051610d14919061107e565b6000604051808303816000865af19150503d8060008114610d51576040519150601f19603f3d011682016040523d82523d6000602084013e610d56565b606091505b505050505b5050565b6001610d71610d6c610dc3565b610dee565b60000181905550565b600033905090565b610d8a610df8565b15610dc1576040517f3ee5aeb500000000000000000000000000000000000000000000000000000000815260040160405180910390fd5b565b60007f9b779b17422d0df92223018b32b4d1fa46e071723d6817e2486d003becc55f0060001b905090565b6000819050919050565b60006002610e0c610e07610dc3565b610dee565b6000015414905090565b600080fd5b6000819050919050565b610e2e81610e1b565b8114610e3957600080fd5b50565b600081359050610e4b81610e25565b92915050565b600060208284031215610e6757610e66610e16565b5b6000610e7584828501610e3c565b91505092915050565b600073ffffffffffffffffffffffffffffffffffffffff82169050919050565b6000610ea982610e7e565b9050919050565b610eb981610e9e565b82525050565b6000602082019050610ed46000830184610eb0565b92915050565b610ee381610e9e565b8114610eee57600080fd5b50565b600081359050610f0081610eda565b92915050565b600060208284031215610f1c57610f1b610e16565b5b6000610f2a84828501610ef1565b91505092915050565b600060ff82169050919050565b610f4981610f33565b8114610f5457600080fd5b50565b600081359050610f6681610f40565b92915050565b60008060408385031215610f8357610f82610e16565b5b6000610f9185828601610f57565b9250506020610fa285828601610f57565b9150509250929050565b60008160070b9050919050565b610fc281610fac565b82525050565b6000608082019050610fdd6000830187610eb0565b610fea6020830186610eb0565b610ff76040830185610eb0565b6110046060830184610fb9565b95945050505050565b600081519050919050565b600081905092915050565b60005b83811015611041578082015181840152602081019050611026565b60008484015250505050565b60006110588261100d565b6110628185611018565b9350611072818560208601611023565b80840191505092915050565b600061108a828461104d565b915081905092915050565b600082825260208201905092915050565b7f546f6b656e207769746864726177616c206661696c6564000000000000000000600082015250565b60006110dc601783611095565b91506110e7826110a6565b602082019050919050565b6000602082019050818103600083015261110b816110cf565b9050919050565b7f496e73756666696369656e742062616c616e6365000000000000000000000000600082015250565b6000611148601483611095565b915061115382611112565b602082019050919050565b600060208201905081810360008301526111778161113b565b9050919050565b50565b600061118e600083611018565b91506111998261117e565b600082019050919050565b60006111af82611181565b9150819050919050565b7f5769746864726177616c206661696c6564000000000000000000000000000000600082015250565b60006111ef601183611095565b91506111fa826111b9565b602082019050919050565b6000602082019050818103600083015261121e816111e2565b9050919050565b7f5761676572206d757374206265203e2030000000000000000000000000000000600082015250565b600061125b601183611095565b915061126682611225565b602082019050919050565b6000602082019050818103600083015261128a8161124e565b9050919050565b7f496e76616c69642067616d652074797065000000000000000000000000000000600082015250565b60006112c7601183611095565b91506112d282611291565b602082019050919050565b600060208201905081810360008301526112f6816112ba565b9050919050565b6000819050919050565b61131861131382610e1b565b6112fd565b82525050565b60008160601b9050919050565b60006113368261131e565b9050919050565b60006113488261132b565b9050919050565b61136061135b82610e9e565b61133d565b82525050565b60008160f81b9050919050565b600061137e82611366565b9050919050565b61139661139182610f33565b611373565b82525050565b60006113a88288611307565b6020820191506113b88287611307565b6020820191506113c8828661134f565b6014820191506113d88285611307565b6020820191506113e88284611385565b6001820191508190509695505050505050565b7f4e487b7100000000000000000000000000000000000000000000000000000000600052601260045260246000fd5b600061143582610e1b565b915061144083610e1b565b9250826114505761144f6113fb565b5b828206905092915050565b7f4e487b7100000000000000000000000000000000000000000000000000000000600052601160045260246000fd5b600061149582610e1b565b91506114a083610e1b565b92508282019050808211156114b8576114b761145b565b5b92915050565b60006114c982610e1b565b91506114d483610e1b565b9250826114e4576114e36113fb565b5b828204905092915050565b60006114fa82610e1b565b915061150583610e1b565b925082820261151381610e1b565b9150828204841483151761152a5761152961145b565b5b5092915050565b7f48424152207061796f7574206661696c65640000000000000000000000000000600082015250565b6000611567601283611095565b915061157282611531565b602082019050919050565b600060208201905081810360008301526115968161155a565b9050919050565b6115a681610f33565b82525050565b6115b581610e1b565b82525050565b60008115159050919050565b6115d0816115bb565b82525050565b600060e0820190506115eb600083018a61159d565b6115f8602083018961159d565b61160560408301886115ac565b61161260608301876115c7565b61161f60808301866115ac565b61162c60a08301856115ac565b61163960c08301846115ac565b98975050505050505050565b600060408201905061165a6000830185610eb0565b6116676020830184610eb0565b939250505056fea2646970667358221220b9cea1dbcca4b71960bc0c018e17dcef28c63597fb64a3289315272aea92e72064736f6c63430008140033","opcodes":"PUSH1 0x80 PUSH1 0x40 MSTORE CALLVALUE DUP1 ISZERO PUSH3 0x11 JUMPI PUSH1 0x0 DUP1 REVERT JUMPDEST POP PUSH1 0x40 MLOAD PUSH3 0x19A7 CODESIZE SUB DUP1 PUSH3 0x19A7 DUP4 CODECOPY DUP2 DUP2 ADD PUSH1 0x40 MSTORE DUP2 ADD SWAP1 PUSH3 0x37 SWAP2 SWAP1 PUSH3 0x293 JUMP JUMPDEST CALLER PUSH1 0x0 PUSH20 0xFFFFFFFFFFFFFFFFFFFFFFFFFFFFFFFFFFFFFFFF AND DUP2 PUSH20 0xFFFFFFFFFFFFFFFFFFFFFFFFFFFFFFFFFFFFFFFF AND SUB PUSH3 0xAD JUMPI PUSH1 0x0 PUSH1 0x40 MLOAD PUSH32 0x1E4FBDF700000000000000000000000000000000000000000000000000000000 DUP2 MSTORE PUSH1 0x4 ADD PUSH3 0xA4 SWAP2 SWAP1 PUSH3 0x2D6 JUMP JUMPDEST PUSH1 0x40 MLOAD DUP1 SWAP2 SUB SWAP1 REVERT JUMPDEST PUSH3 0xBE DUP2 PUSH3 0x130 PUSH1 0x20 SHL PUSH1 0x20 SHR JUMP JUMPDEST POP PUSH1 0x1 PUSH3 0xE1 PUSH3 0xD5 PUSH3 0x1F4 PUSH1 0x20 SHL PUSH1 0x20 SHR JUMP JUMPDEST PUSH3 0x21F PUSH1 0x20 SHL PUSH1 0x20 SHR JUMP JUMPDEST PUSH1 0x0 ADD DUP2 SWAP1 SSTORE POP DUP1 PUSH1 0x1 PUSH1 0x0 PUSH2 0x100 EXP DUP2 SLOAD DUP2 PUSH20 0xFFFFFFFFFFFFFFFFFFFFFFFFFFFFFFFFFFFFFFFF MUL NOT AND SWAP1 DUP4 PUSH20 0xFFFFFFFFFFFFFFFFFFFFFFFFFFFFFFFFFFFFFFFF AND MUL OR SWAP1 SSTORE POP POP PUSH3 0x2F3 JUMP JUMPDEST PUSH1 0x0 DUP1 PUSH1 0x0 SWAP1 SLOAD SWAP1 PUSH2 0x100 EXP SWAP1 DIV PUSH20 0xFFFFFFFFFFFFFFFFFFFFFFFFFFFFFFFFFFFFFFFF AND SWAP1 POP DUP2 PUSH1 0x0 DUP1 PUSH2 0x100 EXP DUP2 SLOAD DUP2 PUSH20 0xFFFFFFFFFFFFFFFFFFFFFFFFFFFFFFFFFFFFFFFF MUL NOT AND SWAP1 DUP4 PUSH20 0xFFFFFFFFFFFFFFFFFFFFFFFFFFFFFFFFFFFFFFFF AND MUL OR SWAP1 SSTORE POP DUP2 PUSH20 0xFFFFFFFFFFFFFFFFFFFFFFFFFFFFFFFFFFFFFFFF AND DUP2 PUSH20 0xFFFFFFFFFFFFFFFFFFFFFFFFFFFFFFFFFFFFFFFF AND PUSH32 0x8BE0079C531659141344CD1FD0A4F28419497F9722A3DAAFE3B4186F6B6457E0 PUSH1 0x40 MLOAD PUSH1 0x40 MLOAD DUP1 SWAP2 SUB SWAP1 LOG3 POP POP JUMP JUMPDEST PUSH1 0x0 PUSH32 0x9B779B17422D0DF92223018B32B4D1FA46E071723D6817E2486D003BECC55F00 PUSH1 0x0 SHL SWAP1 POP SWAP1 JUMP JUMPDEST PUSH1 0x0 DUP2 SWAP1 POP SWAP2 SWAP1 POP JUMP JUMPDEST PUSH1 0x0 DUP1 REVERT JUMPDEST PUSH1 0x0 PUSH20 0xFFFFFFFFFFFFFFFFFFFFFFFFFFFFFFFFFFFFFFFF DUP3 AND SWAP1 POP SWAP2 SWAP1 POP JUMP JUMPDEST PUSH1 0x0 PUSH3 0x25B DUP3 PUSH3 0x22E JUMP JUMPDEST SWAP1 POP SWAP2 SWAP1 POP JUMP JUMPDEST PUSH3 0x26D DUP2 PUSH3 0x24E JUMP JUMPDEST DUP2 EQ PUSH3 0x279 JUMPI PUSH1 0x0 DUP1 REVERT JUMPDEST POP JUMP JUMPDEST PUSH1 0x0 DUP2 MLOAD SWAP1 POP PUSH3 0x28D DUP2 PUSH3 0x262 JUMP JUMPDEST SWAP3 SWAP2 POP POP JUMP JUMPDEST PUSH1 0x0 PUSH1 0x20 DUP3 DUP5 SUB SLT ISZERO PUSH3 0x2AC JUMPI PUSH3 0x2AB PUSH3 0x229 JUMP JUMPDEST JUMPDEST PUSH1 0x0 PUSH3 0x2BC DUP5 DUP3 DUP6 ADD PUSH3 0x27C JUMP JUMPDEST SWAP2 POP POP SWAP3 SWAP2 POP POP JUMP JUMPDEST PUSH3 0x2D0 DUP2 PUSH3 0x24E JUMP JUMPDEST DUP3 MSTORE POP POP JUMP JUMPDEST PUSH1 0x0 PUSH1 0x20 DUP3 ADD SWAP1 POP PUSH3 0x2ED PUSH1 0x0 DUP4 ADD DUP5 PUSH3 0x2C5 JUMP JUMPDEST SWAP3 SWAP2 POP POP JUMP JUMPDEST PUSH2 0x16A4 DUP1 PUSH3 0x303 PUSH1 0x0 CODECOPY PUSH1 0x0 RETURN INVALID PUSH1 0x80 PUSH1 0x40 MSTORE PUSH1 0x4 CALLDATASIZE LT PUSH2 0x8A JUMPI PUSH1 0x0 CALLDATALOAD PUSH1 0xE0 SHR DUP1 PUSH4 0x7AD3DEF2 GT PUSH2 0x59 JUMPI DUP1 PUSH4 0x7AD3DEF2 EQ PUSH2 0x10B JUMPI DUP1 PUSH4 0x8DA5CB5B EQ PUSH2 0x134 JUMPI DUP1 PUSH4 0xA9A0C7FF EQ PUSH2 0x15F JUMPI DUP1 PUSH4 0xE802C36F EQ PUSH2 0x188 JUMPI DUP1 PUSH4 0xF2FDE38B EQ PUSH2 0x1A4 JUMPI PUSH2 0x91 JUMP JUMPDEST DUP1 PUSH4 0x315A095D EQ PUSH2 0x96 JUMPI DUP1 PUSH4 0x3D311667 EQ PUSH2 0xBF JUMPI DUP1 PUSH4 0x715018A6 EQ PUSH2 0xEA JUMPI DUP1 PUSH4 0x753FAB13 EQ PUSH2 0x101 JUMPI PUSH2 0x91 JUMP JUMPDEST CALLDATASIZE PUSH2 0x91 JUMPI STOP JUMPDEST PUSH1 0x0 DUP1 REVERT JUMPDEST CALLVALUE DUP1 ISZERO PUSH2 0xA2 JUMPI PUSH1 0x0 DUP1 REVERT JUMPDEST POP PUSH2 0xBD PUSH1 0x4 DUP1 CALLDATASIZE SUB DUP2 ADD SWAP1 PUSH2 0xB8 SWAP2 SWAP1 PUSH2 0xE51 JUMP JUMPDEST PUSH2 0x1CD JUMP JUMPDEST STOP JUMPDEST CALLVALUE DUP1 ISZERO PUSH2 0xCB JUMPI PUSH1 0x0 DUP1 REVERT JUMPDEST POP PUSH2 0xD4 PUSH2 0x34A JUMP JUMPDEST PUSH1 0x40 MLOAD PUSH2 0xE1 SWAP2 SWAP1 PUSH2 0xEBF JUMP JUMPDEST PUSH1 0x40 MLOAD DUP1 SWAP2 SUB SWAP1 RETURN JUMPDEST CALLVALUE DUP1 ISZERO PUSH2 0xF6 JUMPI PUSH1 0x0 DUP1 REVERT JUMPDEST POP PUSH2 0xFF PUSH2 0x370 JUMP JUMPDEST STOP JUMPDEST PUSH2 0x109 PUSH2 0x384 JUMP JUMPDEST STOP JUMPDEST CALLVALUE DUP1 ISZERO PUSH2 0x117 JUMPI PUSH1 0x0 DUP1 REVERT JUMPDEST POP PUSH2 0x132 PUSH1 0x4 DUP1 CALLDATASIZE SUB DUP2 ADD SWAP1 PUSH2 0x12D SWAP2 SWAP1 PUSH2 0xF06 JUMP JUMPDEST PUSH2 0x386 JUMP JUMPDEST STOP JUMPDEST CALLVALUE DUP1 ISZERO PUSH2 0x140 JUMPI PUSH1 0x0 DUP1 REVERT JUMPDEST POP PUSH2 0x149 PUSH2 0x3D2 JUMP JUMPDEST PUSH1 0x40 MLOAD PUSH2 0x156 SWAP2 SWAP1 PUSH2 0xEBF JUMP JUMPDEST PUSH1 0x40 MLOAD DUP1 SWAP2 SUB SWAP1 RETURN JUMPDEST CALLVALUE DUP1 ISZERO PUSH2 0x16B JUMPI PUSH1 0x0 DUP1 REVERT JUMPDEST POP PUSH2 0x186 PUSH1 0x4 DUP1 CALLDATASIZE SUB DUP2 ADD SWAP1 PUSH2 0x181 SWAP2 SWAP1 PUSH2 0xE51 JUMP JUMPDEST PUSH2 0x3FB JUMP JUMPDEST STOP JUMPDEST PUSH2 0x1A2 PUSH1 0x4 DUP1 CALLDATASIZE SUB DUP2 ADD SWAP1 PUSH2 0x19D SWAP2 SWAP1 PUSH2 0xF6C JUMP JUMPDEST PUSH2 0x4FD JUMP JUMPDEST STOP JUMPDEST CALLVALUE DUP1 ISZERO PUSH2 0x1B0 JUMPI PUSH1 0x0 DUP1 REVERT JUMPDEST POP PUSH2 0x1CB PUSH1 0x4 DUP1 CALLDATASIZE SUB DUP2 ADD SWAP1 PUSH2 0x1C6 SWAP2 SWAP1 PUSH2 0xF06 JUMP JUMPDEST PUSH2 0x8C1 JUMP JUMPDEST STOP JUMPDEST PUSH2 0x1D5 PUSH2 0x947 JUMP JUMPDEST PUSH1 0x0 DUP2 SWAP1 POP PUSH1 0x0 PUSH2 0x167 PUSH20 0xFFFFFFFFFFFFFFFFFFFFFFFFFFFFFFFFFFFFFFFF AND PUSH1 0x1 PUSH1 0x0 SWAP1 SLOAD SWAP1 PUSH2 0x100 EXP SWAP1 DIV PUSH20 0xFFFFFFFFFFFFFFFFFFFFFFFFFFFFFFFFFFFFFFFF AND ADDRESS PUSH2 0x221 PUSH2 0x3D2 JUMP JUMPDEST DUP6 PUSH1 0x40 MLOAD PUSH1 0x24 ADD PUSH2 0x235 SWAP5 SWAP4 SWAP3 SWAP2 SWAP1 PUSH2 0xFC8 JUMP JUMPDEST PUSH1 0x40 MLOAD PUSH1 0x20 DUP2 DUP4 SUB SUB DUP2 MSTORE SWAP1 PUSH1 0x40 MSTORE PUSH32 0xECA3691700000000000000000000000000000000000000000000000000000000 PUSH28 0xFFFFFFFFFFFFFFFFFFFFFFFFFFFFFFFFFFFFFFFFFFFFFFFFFFFFFFFF NOT AND PUSH1 0x20 DUP3 ADD DUP1 MLOAD PUSH28 0xFFFFFFFFFFFFFFFFFFFFFFFFFFFFFFFFFFFFFFFFFFFFFFFFFFFFFFFF DUP4 DUP2 DUP4 AND OR DUP4 MSTORE POP POP POP POP PUSH1 0x40 MLOAD PUSH2 0x2BF SWAP2 SWAP1 PUSH2 0x107E JUMP JUMPDEST PUSH1 0x0 PUSH1 0x40 MLOAD DUP1 DUP4 SUB DUP2 PUSH1 0x0 DUP7 GAS CALL SWAP2 POP POP RETURNDATASIZE DUP1 PUSH1 0x0 DUP2 EQ PUSH2 0x2FC JUMPI PUSH1 0x40 MLOAD SWAP2 POP PUSH1 0x1F NOT PUSH1 0x3F RETURNDATASIZE ADD AND DUP3 ADD PUSH1 0x40 MSTORE RETURNDATASIZE DUP3 MSTORE RETURNDATASIZE PUSH1 0x0 PUSH1 0x20 DUP5 ADD RETURNDATACOPY PUSH2 0x301 JUMP JUMPDEST PUSH1 0x60 SWAP2 POP JUMPDEST POP POP SWAP1 POP DUP1 PUSH2 0x345 JUMPI PUSH1 0x40 MLOAD PUSH32 0x8C379A000000000000000000000000000000000000000000000000000000000 DUP2 MSTORE PUSH1 0x4 ADD PUSH2 0x33C SWAP1 PUSH2 0x10F2 JUMP JUMPDEST PUSH1 0x40 MLOAD DUP1 SWAP2 SUB SWAP1 REVERT JUMPDEST POP POP POP JUMP JUMPDEST PUSH1 0x1 PUSH1 0x0 SWAP1 SLOAD SWAP1 PUSH2 0x100 EXP SWAP1 DIV PUSH20 0xFFFFFFFFFFFFFFFFFFFFFFFFFFFFFFFFFFFFFFFF AND DUP2 JUMP JUMPDEST PUSH2 0x378 PUSH2 0x947 JUMP JUMPDEST PUSH2 0x382 PUSH1 0x0 PUSH2 0x9CE JUMP JUMPDEST JUMP JUMPDEST JUMP JUMPDEST PUSH2 0x38E PUSH2 0x947 JUMP JUMPDEST DUP1 PUSH1 0x1 PUSH1 0x0 PUSH2 0x100 EXP DUP2 SLOAD DUP2 PUSH20 0xFFFFFFFFFFFFFFFFFFFFFFFFFFFFFFFFFFFFFFFF MUL NOT AND SWAP1 DUP4 PUSH20 0xFFFFFFFFFFFFFFFFFFFFFFFFFFFFFFFFFFFFFFFF AND MUL OR SWAP1 SSTORE POP POP JUMP JUMPDEST PUSH1 0x0 DUP1 PUSH1 0x0 SWAP1 SLOAD SWAP1 PUSH2 0x100 EXP SWAP1 DIV PUSH20 0xFFFFFFFFFFFFFFFFFFFFFFFFFFFFFFFFFFFFFFFF AND SWAP1 POP SWAP1 JUMP JUMPDEST PUSH2 0x403 PUSH2 0x947 JUMP JUMPDEST DUP1 SELFBALANCE LT ISZERO PUSH2 0x446 JUMPI PUSH1 0x40 MLOAD PUSH32 0x8C379A000000000000000000000000000000000000000000000000000000000 DUP2 MSTORE PUSH1 0x4 ADD PUSH2 0x43D SWAP1 PUSH2 0x115E JUMP JUMPDEST PUSH1 0x40 MLOAD DUP1 SWAP2 SUB SWAP1 REVERT JUMPDEST PUSH1 0x0 PUSH2 0x450 PUSH2 0x3D2 JUMP JUMPDEST PUSH20 0xFFFFFFFFFFFFFFFFFFFFFFFFFFFFFFFFFFFFFFFF AND DUP3 PUSH1 0x40 MLOAD PUSH2 0x473 SWAP1 PUSH2 0x11A4 JUMP JUMPDEST PUSH1 0x0 PUSH1 0x40 MLOAD DUP1 DUP4 SUB DUP2 DUP6 DUP8 GAS CALL SWAP3 POP POP POP RETURNDATASIZE DUP1 PUSH1 0x0 DUP2 EQ PUSH2 0x4B0 JUMPI PUSH1 0x40 MLOAD SWAP2 POP PUSH1 0x1F NOT PUSH1 0x3F RETURNDATASIZE ADD AND DUP3 ADD PUSH1 0x40 MSTORE RETURNDATASIZE DUP3 MSTORE RETURNDATASIZE PUSH1 0x0 PUSH1 0x20 DUP5 ADD RETURNDATACOPY PUSH2 0x4B5 JUMP JUMPDEST PUSH1 0x60 SWAP2 POP JUMPDEST POP POP SWAP1 POP DUP1 PUSH2 0x4F9 JUMPI PUSH1 0x40 MLOAD PUSH32 0x8C379A000000000000000000000000000000000000000000000000000000000 DUP2 MSTORE PUSH1 0x4 ADD PUSH2 0x4F0 SWAP1 PUSH2 0x1205 JUMP JUMPDEST PUSH1 0x40 MLOAD DUP1 SWAP2 SUB SWAP1 REVERT JUMPDEST POP POP JUMP JUMPDEST PUSH2 0x505 PUSH2 0xA92 JUMP JUMPDEST PUSH1 0x0 CALLVALUE GT PUSH2 0x548 JUMPI PUSH1 0x40 MLOAD PUSH32 0x8C379A000000000000000000000000000000000000000000000000000000000 DUP2 MSTORE PUSH1 0x4 ADD PUSH2 0x53F SWAP1 PUSH2 0x1271 JUMP JUMPDEST PUSH1 0x40 MLOAD DUP1 SWAP2 SUB SWAP1 REVERT JUMPDEST PUSH1 0x1 DUP3 PUSH1 0xFF AND EQ DUP1 PUSH2 0x55D JUMPI POP PUSH1 0x2 DUP3 PUSH1 0xFF AND EQ JUMPDEST PUSH2 0x59C JUMPI PUSH1 0x40 MLOAD PUSH32 0x8C379A000000000000000000000000000000000000000000000000000000000 DUP2 MSTORE PUSH1 0x4 ADD PUSH2 0x593 SWAP1 PUSH2 0x12DD JUMP JUMPDEST PUSH1 0x40 MLOAD DUP1 SWAP2 SUB SWAP1 REVERT JUMPDEST PUSH1 0x0 TIMESTAMP PREVRANDAO CALLER CALLVALUE DUP7 PUSH1 0x40 MLOAD PUSH1 0x20 ADD PUSH2 0x5B7 SWAP6 SWAP5 SWAP4 SWAP3 SWAP2 SWAP1 PUSH2 0x139C JUMP JUMPDEST PUSH1 0x40 MLOAD PUSH1 0x20 DUP2 DUP4 SUB SUB DUP2 MSTORE SWAP1 PUSH1 0x40 MSTORE DUP1 MLOAD SWAP1 PUSH1 0x20 ADD KECCAK256 PUSH1 0x0 SHR SWAP1 POP PUSH1 0x0 DUP1 PUSH1 0x0 PUSH1 0x1 DUP7 PUSH1 0xFF AND SUB PUSH2 0x6D2 JUMPI PUSH1 0x0 PUSH1 0x1 PUSH1 0x6 DUP7 PUSH2 0x5F3 SWAP2 SWAP1 PUSH2 0x142A JUMP JUMPDEST PUSH2 0x5FD SWAP2 SWAP1 PUSH2 0x148A JUMP JUMPDEST SWAP1 POP PUSH1 0x0 PUSH1 0x1 PUSH1 0x6 PUSH1 0xA DUP9 PUSH2 0x612 SWAP2 SWAP1 PUSH2 0x14BE JUMP JUMPDEST PUSH2 0x61C SWAP2 SWAP1 PUSH2 0x142A JUMP JUMPDEST PUSH2 0x626 SWAP2 SWAP1 PUSH2 0x148A JUMP JUMPDEST SWAP1 POP DUP1 DUP3 PUSH2 0x634 SWAP2 SWAP1 PUSH2 0x148A JUMP JUMPDEST SWAP3 POP PUSH1 0x1 DUP8 PUSH1 0xFF AND EQ DUP1 ISZERO PUSH2 0x649 JUMPI POP PUSH1 0x7 DUP4 LT JUMPDEST ISZERO PUSH2 0x657 JUMPI PUSH1 0x1 SWAP5 POP PUSH2 0x697 JUMP JUMPDEST PUSH1 0x2 DUP8 PUSH1 0xFF AND EQ DUP1 ISZERO PUSH2 0x66A JUMPI POP PUSH1 0x7 DUP4 EQ JUMPDEST ISZERO PUSH2 0x678 JUMPI PUSH1 0x1 SWAP5 POP PUSH2 0x696 JUMP JUMPDEST PUSH1 0x3 DUP8 PUSH1 0xFF AND EQ DUP1 ISZERO PUSH2 0x68B JUMPI POP PUSH1 0x7 DUP4 GT JUMPDEST ISZERO PUSH2 0x695 JUMPI PUSH1 0x1 SWAP5 POP JUMPDEST JUMPDEST JUMPDEST DUP5 ISZERO PUSH2 0x6CB JUMPI PUSH1 0x2 DUP8 PUSH1 0xFF AND EQ PUSH2 0x6BA JUMPI PUSH1 0x2 CALLVALUE PUSH2 0x6B5 SWAP2 SWAP1 PUSH2 0x14EF JUMP JUMPDEST PUSH2 0x6C8 JUMP JUMPDEST PUSH1 0x4 CALLVALUE PUSH2 0x6C7 SWAP2 SWAP1 PUSH2 0x14EF JUMP JUMPDEST JUMPDEST SWAP4 POP JUMPDEST POP POP PUSH2 0x766 JUMP JUMPDEST PUSH1 0x1 PUSH1 0x64 DUP6 PUSH2 0x6E1 SWAP2 SWAP1 PUSH2 0x142A JUMP JUMPDEST PUSH2 0x6EB SWAP2 SWAP1 PUSH2 0x148A JUMP JUMPDEST SWAP1 POP PUSH1 0x31 DUP2 LT ISZERO DUP1 ISZERO PUSH2 0x6FF JUMPI POP PUSH1 0x34 DUP2 GT ISZERO JUMPDEST ISZERO PUSH2 0x70D JUMPI PUSH1 0x0 SWAP3 POP PUSH2 0x74F JUMP JUMPDEST PUSH1 0x1 DUP6 PUSH1 0xFF AND EQ DUP1 ISZERO PUSH2 0x721 JUMPI POP PUSH1 0x30 DUP2 GT ISZERO JUMPDEST ISZERO PUSH2 0x72F JUMPI PUSH1 0x1 SWAP3 POP PUSH2 0x74E JUMP JUMPDEST PUSH1 0x2 DUP6 PUSH1 0xFF AND EQ DUP1 ISZERO PUSH2 0x743 JUMPI POP PUSH1 0x35 DUP2 LT ISZERO JUMPDEST ISZERO PUSH2 0x74D JUMPI PUSH1 0x1 SWAP3 POP JUMPDEST JUMPDEST JUMPDEST DUP3 ISZERO PUSH2 0x765 JUMPI PUSH1 0x2 CALLVALUE PUSH2 0x762 SWAP2 SWAP1 PUSH2 0x14EF JUMP JUMPDEST SWAP2 POP JUMPDEST JUMPDEST PUSH1 0x0 DUP4 ISZERO PUSH2 0x83C JUMPI SELFBALANCE DUP4 GT ISZERO PUSH2 0x77A JUMPI SELFBALANCE SWAP3 POP JUMPDEST PUSH1 0x0 CALLER PUSH20 0xFFFFFFFFFFFFFFFFFFFFFFFFFFFFFFFFFFFFFFFF AND DUP5 PUSH1 0x40 MLOAD PUSH2 0x7A0 SWAP1 PUSH2 0x11A4 JUMP JUMPDEST PUSH1 0x0 PUSH1 0x40 MLOAD DUP1 DUP4 SUB DUP2 DUP6 DUP8 GAS CALL SWAP3 POP POP POP RETURNDATASIZE DUP1 PUSH1 0x0 DUP2 EQ PUSH2 0x7DD JUMPI PUSH1 0x40 MLOAD SWAP2 POP PUSH1 0x1F NOT PUSH1 0x3F RETURNDATASIZE ADD AND DUP3 ADD PUSH1 0x40 MSTORE RETURNDATASIZE DUP3 MSTORE RETURNDATASIZE PUSH1 0x0 PUSH1 0x20 DUP5 ADD RETURNDATACOPY PUSH2 0x7E2 JUMP JUMPDEST PUSH1 0x60 SWAP2 POP JUMPDEST POP POP SWAP1 POP DUP1 PUSH2 0x826 JUMPI PUSH1 0x40 MLOAD PUSH32 0x8C379A000000000000000000000000000000000000000000000000000000000 DUP2 MSTORE PUSH1 0x4 ADD PUSH2 0x81D SWAP1 PUSH2 0x157D JUMP JUMPDEST PUSH1 0x40 MLOAD DUP1 SWAP2 SUB SWAP1 REVERT JUMPDEST PUSH2 0x1F4 CALLVALUE PUSH2 0x834 SWAP2 SWAP1 PUSH2 0x14EF JUMP JUMPDEST SWAP2 POP POP PUSH2 0x84C JUMP JUMPDEST PUSH1 0xC8 CALLVALUE PUSH2 0x849 SWAP2 SWAP1 PUSH2 0x14EF JUMP JUMPDEST SWAP1 POP JUMPDEST PUSH2 0x856 CALLER DUP3 PUSH2 0xAB5 JUMP JUMPDEST CALLER PUSH20 0xFFFFFFFFFFFFFFFFFFFFFFFFFFFFFFFFFFFFFFFF AND PUSH32 0x3FF1BBFE2DDC910863E4520F9B7EE9B9095D766C1BFA3A544C517BD44B5371E6 DUP9 DUP9 CALLVALUE DUP9 DUP9 DUP8 DUP10 PUSH1 0x40 MLOAD PUSH2 0x8A8 SWAP8 SWAP7 SWAP6 SWAP5 SWAP4 SWAP3 SWAP2 SWAP1 PUSH2 0x15D6 JUMP JUMPDEST PUSH1 0x40 MLOAD DUP1 SWAP2 SUB SWAP1 LOG2 POP POP POP POP POP PUSH2 0x8BD PUSH2 0xD5F JUMP JUMPDEST POP POP JUMP JUMPDEST PUSH2 0x8C9 PUSH2 0x947 JUMP JUMPDEST PUSH1 0x0 PUSH20 0xFFFFFFFFFFFFFFFFFFFFFFFFFFFFFFFFFFFFFFFF AND DUP2 PUSH20 0xFFFFFFFFFFFFFFFFFFFFFFFFFFFFFFFFFFFFFFFF AND SUB PUSH2 0x93B JUMPI PUSH1 0x0 PUSH1 0x40 MLOAD PUSH32 0x1E4FBDF700000000000000000000000000000000000000000000000000000000 DUP2 MSTORE PUSH1 0x4 ADD PUSH2 0x932 SWAP2 SWAP1 PUSH2 0xEBF JUMP JUMPDEST PUSH1 0x40 MLOAD DUP1 SWAP2 SUB SWAP1 REVERT JUMPDEST PUSH2 0x944 DUP2 PUSH2 0x9CE JUMP JUMPDEST POP JUMP JUMPDEST PUSH2 0x94F PUSH2 0xD7A JUMP JUMPDEST PUSH20 0xFFFFFFFFFFFFFFFFFFFFFFFFFFFFFFFFFFFFFFFF AND PUSH2 0x96D PUSH2 0x3D2 JUMP JUMPDEST PUSH20 0xFFFFFFFFFFFFFFFFFFFFFFFFFFFFFFFFFFFFFFFF AND EQ PUSH2 0x9CC JUMPI PUSH2 0x990 PUSH2 0xD7A JUMP JUMPDEST PUSH1 0x40 MLOAD PUSH32 0x118CDAA700000000000000000000000000000000000000000000000000000000 DUP2 MSTORE PUSH1 0x4 ADD PUSH2 0x9C3 SWAP2 SWAP1 PUSH2 0xEBF JUMP JUMPDEST PUSH1 0x40 MLOAD DUP1 SWAP2 SUB SWAP1 REVERT JUMPDEST JUMP JUMPDEST PUSH1 0x0 DUP1 PUSH1 0x0 SWAP1 SLOAD SWAP1 PUSH2 0x100 EXP SWAP1 DIV PUSH20 0xFFFFFFFFFFFFFFFFFFFFFFFFFFFFFFFFFFFFFFFF AND SWAP1 POP DUP2 PUSH1 0x0 DUP1 PUSH2 0x100 EXP DUP2 SLOAD DUP2 PUSH20 0xFFFFFFFFFFFFFFFFFFFFFFFFFFFFFFFFFFFFFFFF MUL NOT AND SWAP1 DUP4 PUSH20 0xFFFFFFFFFFFFFFFFFFFFFFFFFFFFFFFFFFFFFFFF AND MUL OR SWAP1 SSTORE POP DUP2 PUSH20 0xFFFFFFFFFFFFFFFFFFFFFFFFFFFFFFFFFFFFFFFF AND DUP2 PUSH20 0xFFFFFFFFFFFFFFFFFFFFFFFFFFFFFFFFFFFFFFFF AND PUSH32 0x8BE0079C531659141344CD1FD0A4F28419497F9722A3DAAFE3B4186F6B6457E0 PUSH1 0x40 MLOAD PUSH1 0x40 MLOAD DUP1 SWAP2 SUB SWAP1 LOG3 POP POP JUMP JUMPDEST PUSH2 0xA9A PUSH2 0xD82 JUMP JUMPDEST PUSH1 0x2 PUSH2 0xAAC PUSH2 0xAA7 PUSH2 0xDC3 JUMP JUMPDEST PUSH2 0xDEE JUMP JUMPDEST PUSH1 0x0 ADD DUP2 SWAP1 SSTORE POP JUMP JUMPDEST PUSH1 0x0 DUP2 EQ DUP1 PUSH2 0xB12 JUMPI POP PUSH1 0x0 PUSH20 0xFFFFFFFFFFFFFFFFFFFFFFFFFFFFFFFFFFFFFFFF AND PUSH1 0x1 PUSH1 0x0 SWAP1 SLOAD SWAP1 PUSH2 0x100 EXP SWAP1 DIV PUSH20 0xFFFFFFFFFFFFFFFFFFFFFFFFFFFFFFFFFFFFFFFF AND PUSH20 0xFFFFFFFFFFFFFFFFFFFFFFFFFFFFFFFFFFFFFFFF AND EQ JUMPDEST PUSH2 0xD5B JUMPI PUSH1 0x0 DUP2 SWAP1 POP PUSH2 0x167 PUSH20 0xFFFFFFFFFFFFFFFFFFFFFFFFFFFFFFFFFFFFFFFF AND DUP4 PUSH1 0x1 PUSH1 0x0 SWAP1 SLOAD SWAP1 PUSH2 0x100 EXP SWAP1 DIV PUSH20 0xFFFFFFFFFFFFFFFFFFFFFFFFFFFFFFFFFFFFFFFF AND PUSH1 0x40 MLOAD PUSH1 0x24 ADD PUSH2 0xB69 SWAP3 SWAP2 SWAP1 PUSH2 0x1645 JUMP JUMPDEST PUSH1 0x40 MLOAD PUSH1 0x20 DUP2 DUP4 SUB SUB DUP2 MSTORE SWAP1 PUSH1 0x40 MSTORE PUSH32 0x49146BDE00000000000000000000000000000000000000000000000000000000 PUSH28 0xFFFFFFFFFFFFFFFFFFFFFFFFFFFFFFFFFFFFFFFFFFFFFFFFFFFFFFFF NOT AND PUSH1 0x20 DUP3 ADD DUP1 MLOAD PUSH28 0xFFFFFFFFFFFFFFFFFFFFFFFFFFFFFFFFFFFFFFFFFFFFFFFFFFFFFFFF DUP4 DUP2 DUP4 AND OR DUP4 MSTORE POP POP POP POP PUSH1 0x40 MLOAD PUSH2 0xBF3 SWAP2 SWAP1 PUSH2 0x107E JUMP JUMPDEST PUSH1 0x0 PUSH1 0x40 MLOAD DUP1 DUP4 SUB DUP2 PUSH1 0x0 DUP7 GAS CALL SWAP2 POP POP RETURNDATASIZE DUP1 PUSH1 0x0 DUP2 EQ PUSH2 0xC30 JUMPI PUSH1 0x40 MLOAD SWAP2 POP PUSH1 0x1F NOT PUSH1 0x3F RETURNDATASIZE ADD AND DUP3 ADD PUSH1 0x40 MSTORE RETURNDATASIZE DUP3 MSTORE RETURNDATASIZE PUSH1 0x0 PUSH1 0x20 DUP5 ADD RETURNDATACOPY PUSH2 0xC35 JUMP JUMPDEST PUSH1 0x60 SWAP2 POP JUMPDEST POP POP POP PUSH2 0x167 PUSH20 0xFFFFFFFFFFFFFFFFFFFFFFFFFFFFFFFFFFFFFFFF AND PUSH1 0x1 PUSH1 0x0 SWAP1 SLOAD SWAP1 PUSH2 0x100 EXP SWAP1 DIV PUSH20 0xFFFFFFFFFFFFFFFFFFFFFFFFFFFFFFFFFFFFFFFF AND ADDRESS DUP6 DUP5 PUSH1 0x40 MLOAD PUSH1 0x24 ADD PUSH2 0xC8A SWAP5 SWAP4 SWAP3 SWAP2 SWAP1 PUSH2 0xFC8 JUMP JUMPDEST PUSH1 0x40 MLOAD PUSH1 0x20 DUP2 DUP4 SUB SUB DUP2 MSTORE SWAP1 PUSH1 0x40 MSTORE PUSH32 0xECA3691700000000000000000000000000000000000000000000000000000000 PUSH28 0xFFFFFFFFFFFFFFFFFFFFFFFFFFFFFFFFFFFFFFFFFFFFFFFFFFFFFFFF NOT AND PUSH1 0x20 DUP3 ADD DUP1 MLOAD PUSH28 0xFFFFFFFFFFFFFFFFFFFFFFFFFFFFFFFFFFFFFFFFFFFFFFFFFFFFFFFF DUP4 DUP2 DUP4 AND OR DUP4 MSTORE POP POP POP POP PUSH1 0x40 MLOAD PUSH2 0xD14 SWAP2 SWAP1 PUSH2 0x107E JUMP JUMPDEST PUSH1 0x0 PUSH1 0x40 MLOAD DUP1 DUP4 SUB DUP2 PUSH1 0x0 DUP7 GAS CALL SWAP2 POP POP RETURNDATASIZE DUP1 PUSH1 0x0 DUP2 EQ PUSH2 0xD51 JUMPI PUSH1 0x40 MLOAD SWAP2 POP PUSH1 0x1F NOT PUSH1 0x3F RETURNDATASIZE ADD AND DUP3 ADD PUSH1 0x40 MSTORE RETURNDATASIZE DUP3 MSTORE RETURNDATASIZE PUSH1 0x0 PUSH1 0x20 DUP5 ADD RETURNDATACOPY PUSH2 0xD56 JUMP JUMPDEST PUSH1 0x60 SWAP2 POP JUMPDEST POP POP POP POP JUMPDEST POP POP JUMP JUMPDEST PUSH1 0x1 PUSH2 0xD71 PUSH2 0xD6C PUSH2 0xDC3 JUMP JUMPDEST PUSH2 0xDEE JUMP JUMPDEST PUSH1 0x0 ADD DUP2 SWAP1 SSTORE POP JUMP JUMPDEST PUSH1 0x0 CALLER SWAP1 POP SWAP1 JUMP JUMPDEST PUSH2 0xD8A PUSH2 0xDF8 JUMP JUMPDEST ISZERO PUSH2 0xDC1 JUMPI PUSH1 0x40 MLOAD PUSH32 0x3EE5AEB500000000000000000000000000000000000000000000000000000000 DUP2 MSTORE PUSH1 0x4 ADD PUSH1 0x40 MLOAD DUP1 SWAP2 SUB SWAP1 REVERT JUMPDEST JUMP JUMPDEST PUSH1 0x0 PUSH32 0x9B779B17422D0DF92223018B32B4D1FA46E071723D6817E2486D003BECC55F00 PUSH1 0x0 SHL SWAP1 POP SWAP1 JUMP JUMPDEST PUSH1 0x0 DUP2 SWAP1 POP SWAP2 SWAP1 POP JUMP JUMPDEST PUSH1 0x0 PUSH1 0x2 PUSH2 0xE0C PUSH2 0xE07 PUSH2 0xDC3 JUMP JUMPDEST PUSH2 0xDEE JUMP JUMPDEST PUSH1 0x0 ADD SLOAD EQ SWAP1 POP SWAP1 JUMP JUMPDEST PUSH1 0x0 DUP1 REVERT JUMPDEST PUSH1 0x0 DUP2 SWAP1 POP SWAP2 SWAP1 POP JUMP JUMPDEST PUSH2 0xE2E DUP2 PUSH2 0xE1B JUMP JUMPDEST DUP2 EQ PUSH2 0xE39 JUMPI PUSH1 0x0 DUP1 REVERT JUMPDEST POP JUMP JUMPDEST PUSH1 0x0 DUP2 CALLDATALOAD SWAP1 POP PUSH2 0xE4B DUP2 PUSH2 0xE25 JUMP JUMPDEST SWAP3 SWAP2 POP POP JUMP JUMPDEST PUSH1 0x0 PUSH1 0x20 DUP3 DUP5 SUB SLT ISZERO PUSH2 0xE67 JUMPI PUSH2 0xE66 PUSH2 0xE16 JUMP JUMPDEST JUMPDEST PUSH1 0x0 PUSH2 0xE75 DUP5 DUP3 DUP6 ADD PUSH2 0xE3C JUMP JUMPDEST SWAP2 POP POP SWAP3 SWAP2 POP POP JUMP JUMPDEST PUSH1 0x0 PUSH20 0xFFFFFFFFFFFFFFFFFFFFFFFFFFFFFFFFFFFFFFFF DUP3 AND SWAP1 POP SWAP2 SWAP1 POP JUMP JUMPDEST PUSH1 0x0 PUSH2 0xEA9 DUP3 PUSH2 0xE7E JUMP JUMPDEST SWAP1 POP SWAP2 SWAP1 POP JUMP JUMPDEST PUSH2 0xEB9 DUP2 PUSH2 0xE9E JUMP JUMPDEST DUP3 MSTORE POP POP JUMP JUMPDEST PUSH1 0x0 PUSH1 0x20 DUP3 ADD SWAP1 POP PUSH2 0xED4 PUSH1 0x0 DUP4 ADD DUP5 PUSH2 0xEB0 JUMP JUMPDEST SWAP3 SWAP2 POP POP JUMP JUMPDEST PUSH2 0xEE3 DUP2 PUSH2 0xE9E JUMP JUMPDEST DUP2 EQ PUSH2 0xEEE JUMPI PUSH1 0x0 DUP1 REVERT JUMPDEST POP JUMP JUMPDEST PUSH1 0x0 DUP2 CALLDATALOAD SWAP1 POP PUSH2 0xF00 DUP2 PUSH2 0xEDA JUMP JUMPDEST SWAP3 SWAP2 POP POP JUMP JUMPDEST PUSH1 0x0 PUSH1 0x20 DUP3 DUP5 SUB SLT ISZERO PUSH2 0xF1C JUMPI PUSH2 0xF1B PUSH2 0xE16 JUMP JUMPDEST JUMPDEST PUSH1 0x0 PUSH2 0xF2A DUP5 DUP3 DUP6 ADD PUSH2 0xEF1 JUMP JUMPDEST SWAP2 POP POP SWAP3 SWAP2 POP POP JUMP JUMPDEST PUSH1 0x0 PUSH1 0xFF DUP3 AND SWAP1 POP SWAP2 SWAP1 POP JUMP JUMPDEST PUSH2 0xF49 DUP2 PUSH2 0xF33 JUMP JUMPDEST DUP2 EQ PUSH2 0xF54 JUMPI PUSH1 0x0 DUP1 REVERT JUMPDEST POP JUMP JUMPDEST PUSH1 0x0 DUP2 CALLDATALOAD SWAP1 POP PUSH2 0xF66 DUP2 PUSH2 0xF40 JUMP JUMPDEST SWAP3 SWAP2 POP POP JUMP JUMPDEST PUSH1 0x0 DUP1 PUSH1 0x40 DUP4 DUP6 SUB SLT ISZERO PUSH2 0xF83 JUMPI PUSH2 0xF82 PUSH2 0xE16 JUMP JUMPDEST JUMPDEST PUSH1 0x0 PUSH2 0xF91 DUP6 DUP3 DUP7 ADD PUSH2 0xF57 JUMP JUMPDEST SWAP3 POP POP PUSH1 0x20 PUSH2 0xFA2 DUP6 DUP3 DUP7 ADD PUSH2 0xF57 JUMP JUMPDEST SWAP2 POP POP SWAP3 POP SWAP3 SWAP1 POP JUMP JUMPDEST PUSH1 0x0 DUP2 PUSH1 0x7 SIGNEXTEND SWAP1 POP SWAP2 SWAP1 POP JUMP JUMPDEST PUSH2 0xFC2 DUP2 PUSH2 0xFAC JUMP JUMPDEST DUP3 MSTORE POP POP JUMP JUMPDEST PUSH1 0x0 PUSH1 0x80 DUP3 ADD SWAP1 POP PUSH2 0xFDD PUSH1 0x0 DUP4 ADD DUP8 PUSH2 0xEB0 JUMP JUMPDEST PUSH2 0xFEA PUSH1 0x20 DUP4 ADD DUP7 PUSH2 0xEB0 JUMP JUMPDEST PUSH2 0xFF7 PUSH1 0x40 DUP4 ADD DUP6 PUSH2 0xEB0 JUMP JUMPDEST PUSH2 0x1004 PUSH1 0x60 DUP4 ADD DUP5 PUSH2 0xFB9 JUMP JUMPDEST SWAP6 SWAP5 POP POP POP POP POP JUMP JUMPDEST PUSH1 0x0 DUP2 MLOAD SWAP1 POP SWAP2 SWAP1 POP JUMP JUMPDEST PUSH1 0x0 DUP2 SWAP1 POP SWAP3 SWAP2 POP POP JUMP JUMPDEST PUSH1 0x0 JUMPDEST DUP4 DUP2 LT ISZERO PUSH2 0x1041 JUMPI DUP1 DUP3 ADD MLOAD DUP2 DUP5 ADD MSTORE PUSH1 0x20 DUP2 ADD SWAP1 POP PUSH2 0x1026 JUMP JUMPDEST PUSH1 0x0 DUP5 DUP5 ADD MSTORE POP POP POP POP JUMP JUMPDEST PUSH1 0x0 PUSH2 0x1058 DUP3 PUSH2 0x100D JUMP JUMPDEST PUSH2 0x1062 DUP2 DUP6 PUSH2 0x1018 JUMP JUMPDEST SWAP4 POP PUSH2 0x1072 DUP2 DUP6 PUSH1 0x20 DUP7 ADD PUSH2 0x1023 JUMP JUMPDEST DUP1 DUP5 ADD SWAP2 POP POP SWAP3 SWAP2 POP POP JUMP JUMPDEST PUSH1 0x0 PUSH2 0x108A DUP3 DUP5 PUSH2 0x104D JUMP JUMPDEST SWAP2 POP DUP2 SWAP1 POP SWAP3 SWAP2 POP POP JUMP JUMPDEST PUSH1 0x0 DUP3 DUP3 MSTORE PUSH1 0x20 DUP3 ADD SWAP1 POP SWAP3 SWAP2 POP POP JUMP JUMPDEST PUSH32 0x546F6B656E207769746864726177616C206661696C6564000000000000000000 PUSH1 0x0 DUP3 ADD MSTORE POP JUMP JUMPDEST PUSH1 0x0 PUSH2 0x10DC PUSH1 0x17 DUP4 PUSH2 0x1095 JUMP JUMPDEST SWAP2 POP PUSH2 0x10E7 DUP3 PUSH2 0x10A6 JUMP JUMPDEST PUSH1 0x20 DUP3 ADD SWAP1 POP SWAP2 SWAP1 POP JUMP JUMPDEST PUSH1 0x0 PUSH1 0x20 DUP3 ADD SWAP1 POP DUP2 DUP2 SUB PUSH1 0x0 DUP4 ADD MSTORE PUSH2 0x110B DUP2 PUSH2 0x10CF JUMP JUMPDEST SWAP1 POP SWAP2 SWAP1 POP JUMP JUMPDEST PUSH32 0x496E73756666696369656E742062616C616E6365000000000000000000000000 PUSH1 0x0 DUP3 ADD MSTORE POP JUMP JUMPDEST PUSH1 0x0 PUSH2 0x1148 PUSH1 0x14 DUP4 PUSH2 0x1095 JUMP JUMPDEST SWAP2 POP PUSH2 0x1153 DUP3 PUSH2 0x1112 JUMP JUMPDEST PUSH1 0x20 DUP3 ADD SWAP1 POP SWAP2 SWAP1 POP JUMP JUMPDEST PUSH1 0x0 PUSH1 0x20 DUP3 ADD SWAP1 POP DUP2 DUP2 SUB PUSH1 0x0 DUP4 ADD MSTORE PUSH2 0x1177 DUP2 PUSH2 0x113B JUMP JUMPDEST SWAP1 POP SWAP2 SWAP1 POP JUMP JUMPDEST POP JUMP JUMPDEST PUSH1 0x0 PUSH2 0x118E PUSH1 0x0 DUP4 PUSH2 0x1018 JUMP JUMPDEST SWAP2 POP PUSH2 0x1199 DUP3 PUSH2 0x117E JUMP JUMPDEST PUSH1 0x0 DUP3 ADD SWAP1 POP SWAP2 SWAP1 POP JUMP JUMPDEST PUSH1 0x0 PUSH2 0x11AF DUP3 PUSH2 0x1181 JUMP JUMPDEST SWAP2 POP DUP2 SWAP1 POP SWAP2 SWAP1 POP JUMP JUMPDEST PUSH32 0x5769746864726177616C206661696C6564000000000000000000000000000000 PUSH1 0x0 DUP3 ADD MSTORE POP JUMP JUMPDEST PUSH1 0x0 PUSH2 0x11EF PUSH1 0x11 DUP4 PUSH2 0x1095 JUMP JUMPDEST SWAP2 POP PUSH2 0x11FA DUP3 PUSH2 0x11B9 JUMP JUMPDEST PUSH1 0x20 DUP3 ADD SWAP1 POP SWAP2 SWAP1 POP JUMP JUMPDEST PUSH1 0x0 PUSH1 0x20 DUP3 ADD SWAP1 POP DUP2 DUP2 SUB PUSH1 0x0 DUP4 ADD MSTORE PUSH2 0x121E DUP2 PUSH2 0x11E2 JUMP JUMPDEST SWAP1 POP SWAP2 SWAP1 POP JUMP JUMPDEST PUSH32 0x5761676572206D757374206265203E2030000000000000000000000000000000 PUSH1 0x0 DUP3 ADD MSTORE POP JUMP JUMPDEST PUSH1 0x0 PUSH2 0x125B PUSH1 0x11 DUP4 PUSH2 0x1095 JUMP JUMPDEST SWAP2 POP PUSH2 0x1266 DUP3 PUSH2 0x1225 JUMP JUMPDEST PUSH1 0x20 DUP3 ADD SWAP1 POP SWAP2 SWAP1 POP JUMP JUMPDEST PUSH1 0x0 PUSH1 0x20 DUP3 ADD SWAP1 POP DUP2 DUP2 SUB PUSH1 0x0 DUP4 ADD MSTORE PUSH2 0x128A DUP2 PUSH2 0x124E JUMP JUMPDEST SWAP1 POP SWAP2 SWAP1 POP JUMP JUMPDEST PUSH32 0x496E76616C69642067616D652074797065000000000000000000000000000000 PUSH1 0x0 DUP3 ADD MSTORE POP JUMP JUMPDEST PUSH1 0x0 PUSH2 0x12C7 PUSH1 0x11 DUP4 PUSH2 0x1095 JUMP JUMPDEST SWAP2 POP PUSH2 0x12D2 DUP3 PUSH2 0x1291 JUMP JUMPDEST PUSH1 0x20 DUP3 ADD SWAP1 POP SWAP2 SWAP1 POP JUMP JUMPDEST PUSH1 0x0 PUSH1 0x20 DUP3 ADD SWAP1 POP DUP2 DUP2 SUB PUSH1 0x0 DUP4 ADD MSTORE PUSH2 0x12F6 DUP2 PUSH2 0x12BA JUMP JUMPDEST SWAP1 POP SWAP2 SWAP1 POP JUMP JUMPDEST PUSH1 0x0 DUP2 SWAP1 POP SWAP2 SWAP1 POP JUMP JUMPDEST PUSH2 0x1318 PUSH2 0x1313 DUP3 PUSH2 0xE1B JUMP JUMPDEST PUSH2 0x12FD JUMP JUMPDEST DUP3 MSTORE POP POP JUMP JUMPDEST PUSH1 0x0 DUP2 PUSH1 0x60 SHL SWAP1 POP SWAP2 SWAP1 POP JUMP JUMPDEST PUSH1 0x0 PUSH2 0x1336 DUP3 PUSH2 0x131E JUMP JUMPDEST SWAP1 POP SWAP2 SWAP1 POP JUMP JUMPDEST PUSH1 0x0 PUSH2 0x1348 DUP3 PUSH2 0x132B JUMP JUMPDEST SWAP1 POP SWAP2 SWAP1 POP JUMP JUMPDEST PUSH2 0x1360 PUSH2 0x135B DUP3 PUSH2 0xE9E JUMP JUMPDEST PUSH2 0x133D JUMP JUMPDEST DUP3 MSTORE POP POP JUMP JUMPDEST PUSH1 0x0 DUP2 PUSH1 0xF8 SHL SWAP1 POP SWAP2 SWAP1 POP JUMP JUMPDEST PUSH1 0x0 PUSH2 0x137E DUP3 PUSH2 0x1366 JUMP JUMPDEST SWAP1 POP SWAP2 SWAP1 POP JUMP JUMPDEST PUSH2 0x1396 PUSH2 0x1391 DUP3 PUSH2 0xF33 JUMP JUMPDEST PUSH2 0x1373 JUMP JUMPDEST DUP3 MSTORE POP POP JUMP JUMPDEST PUSH1 0x0 PUSH2 0x13A8 DUP3 DUP9 PUSH2 0x1307 JUMP JUMPDEST PUSH1 0x20 DUP3 ADD SWAP2 POP PUSH2 0x13B8 DUP3 DUP8 PUSH2 0x1307 JUMP JUMPDEST PUSH1 0x20 DUP3 ADD SWAP2 POP PUSH2 0x13C8 DUP3 DUP7 PUSH2 0x134F JUMP JUMPDEST PUSH1 0x14 DUP3 ADD SWAP2 POP PUSH2 0x13D8 DUP3 DUP6 PUSH2 0x1307 JUMP JUMPDEST PUSH1 0x20 DUP3 ADD SWAP2 POP PUSH2 0x13E8 DUP3 DUP5 PUSH2 0x1385 JUMP JUMPDEST PUSH1 0x1 DUP3 ADD SWAP2 POP DUP2 SWAP1 POP SWAP7 SWAP6 POP POP POP POP POP POP JUMP JUMPDEST PUSH32 0x4E487B7100000000000000000000000000000000000000000000000000000000 PUSH1 0x0 MSTORE PUSH1 0x12 PUSH1 0x4 MSTORE PUSH1 0x24 PUSH1 0x0 REVERT JUMPDEST PUSH1 0x0 PUSH2 0x1435 DUP3 PUSH2 0xE1B JUMP JUMPDEST SWAP2 POP PUSH2 0x1440 DUP4 PUSH2 0xE1B JUMP JUMPDEST SWAP3 POP DUP3 PUSH2 0x1450 JUMPI PUSH2 0x144F PUSH2 0x13FB JUMP JUMPDEST JUMPDEST DUP3 DUP3 MOD SWAP1 POP SWAP3 SWAP2 POP POP JUMP JUMPDEST PUSH32 0x4E487B7100000000000000000000000000000000000000000000000000000000 PUSH1 0x0 MSTORE PUSH1 0x11 PUSH1 0x4 MSTORE PUSH1 0x24 PUSH1 0x0 REVERT JUMPDEST PUSH1 0x0 PUSH2 0x1495 DUP3 PUSH2 0xE1B JUMP JUMPDEST SWAP2 POP PUSH2 0x14A0 DUP4 PUSH2 0xE1B JUMP JUMPDEST SWAP3 POP DUP3 DUP3 ADD SWAP1 POP DUP1 DUP3 GT ISZERO PUSH2 0x14B8 JUMPI PUSH2 0x14B7 PUSH2 0x145B JUMP JUMPDEST JUMPDEST SWAP3 SWAP2 POP POP JUMP JUMPDEST PUSH1 0x0 PUSH2 0x14C9 DUP3 PUSH2 0xE1B JUMP JUMPDEST SWAP2 POP PUSH2 0x14D4 DUP4 PUSH2 0xE1B JUMP JUMPDEST SWAP3 POP DUP3 PUSH2 0x14E4 JUMPI PUSH2 0x14E3 PUSH2 0x13FB JUMP JUMPDEST JUMPDEST DUP3 DUP3 DIV SWAP1 POP SWAP3 SWAP2 POP POP JUMP JUMPDEST PUSH1 0x0 PUSH2 0x14FA DUP3 PUSH2 0xE1B JUMP JUMPDEST SWAP2 POP PUSH2 0x1505 DUP4 PUSH2 0xE1B JUMP JUMPDEST SWAP3 POP DUP3 DUP3 MUL PUSH2 0x1513 DUP2 PUSH2 0xE1B JUMP JUMPDEST SWAP2 POP DUP3 DUP3 DIV DUP5 EQ DUP4 ISZERO OR PUSH2 0x152A JUMPI PUSH2 0x1529 PUSH2 0x145B JUMP JUMPDEST JUMPDEST POP SWAP3 SWAP2 POP POP JUMP JUMPDEST PUSH32 0x48424152207061796F7574206661696C65640000000000000000000000000000 PUSH1 0x0 DUP3 ADD MSTORE POP JUMP JUMPDEST PUSH1 0x0 PUSH2 0x1567 PUSH1 0x12 DUP4 PUSH2 0x1095 JUMP JUMPDEST SWAP2 POP PUSH2 0x1572 DUP3 PUSH2 0x1531 JUMP JUMPDEST PUSH1 0x20 DUP3 ADD SWAP1 POP SWAP2 SWAP1 POP JUMP JUMPDEST PUSH1 0x0 PUSH1 0x20 DUP3 ADD SWAP1 POP DUP2 DUP2 SUB PUSH1 0x0 DUP4 ADD MSTORE PUSH2 0x1596 DUP2 PUSH2 0x155A JUMP JUMPDEST SWAP1 POP SWAP2 SWAP1 POP JUMP JUMPDEST PUSH2 0x15A6 DUP2 PUSH2 0xF33 JUMP JUMPDEST DUP3 MSTORE POP POP JUMP JUMPDEST PUSH2 0x15B5 DUP2 PUSH2 0xE1B JUMP JUMPDEST DUP3 MSTORE POP POP JUMP JUMPDEST PUSH1 0x0 DUP2 ISZERO ISZERO SWAP1 POP SWAP2 SWAP1 POP JUMP JUMPDEST PUSH2 0x15D0 DUP2 PUSH2 0x15BB JUMP JUMPDEST DUP3 MSTORE POP POP JUMP JUMPDEST PUSH1 0x0 PUSH1 0xE0 DUP3 ADD SWAP1 POP PUSH2 0x15EB PUSH1 0x0 DUP4 ADD DUP11 PUSH2 0x159D JUMP JUMPDEST PUSH2 0x15F8 PUSH1 0x20 DUP4 ADD DUP10 PUSH2 0x159D JUMP JUMPDEST PUSH2 0x1605 PUSH1 0x40 DUP4 ADD DUP9 PUSH2 0x15AC JUMP JUMPDEST PUSH2 0x1612 PUSH1 0x60 DUP4 ADD DUP8 PUSH2 0x15C7 JUMP JUMPDEST PUSH2 0x161F PUSH1 0x80 DUP4 ADD DUP7 PUSH2 0x15AC JUMP JUMPDEST PUSH2 0x162C PUSH1 0xA0 DUP4 ADD DUP6 PUSH2 0x15AC JUMP JUMPDEST PUSH2 0x1639 PUSH1 0xC0 DUP4 ADD DUP5 PUSH2 0x15AC JUMP JUMPDEST SWAP9 SWAP8 POP POP POP POP POP POP POP POP JUMP JUMPDEST PUSH1 0x0 PUSH1 0x40 DUP3 ADD SWAP1 POP PUSH2 0x165A PUSH1 0x0 DUP4 ADD DUP6 PUSH2 0xEB0 JUMP JUMPDEST PUSH2 0x1667 PUSH1 0x20 DUP4 ADD DUP5 PUSH2 0xEB0 JUMP JUMPDEST SWAP4 SWAP3 POP POP POP JUMP INVALID LOG2 PUSH5 0x6970667358 0x22 SLT KECCAK256 0xB9 0xCE LOG1 0xDB 0xCC LOG4 0xB7 NOT PUSH1 0xBC 0xC ADD DUP15 OR 0xDC 0xEF 0x28 0xC6 CALLDATALOAD SWAP8 0xFB PUSH5 0xA328931527 0x2A 0xEA SWAP3 0xE7 KECCAK256 PUSH5 0x736F6C6343 STOP ADDMOD EQ STOP CALLER "},"methodIdentifiers":{"fundBankroll()":"753fab13","hashplayToken()":"3d311667","owner()":"8da5cb5b","play(uint8,uint8)":"e802c36f","renounceOwnership()":"715018a6","transferOwnership(address)":"f2fde38b","updateToken(address)":"7ad3def2","withdrawHBAR(uint256)":"a9a0c7ff","withdrawTokens(uint256)":"315a095d"}}}}}