{
  "_format": "hh-sol-artifact-1",
  "contractName": "HashplayMiningEngine",
  "sourceName": "contracts/HashplayMiningEngine.sol",
  "abi": [
    {
      "inputs": [
        {
          "internalType": "address",
          "name": "_tokenAddress",
          "type": "address"
        },
        {
          "internalType": "address",
          "name": "_treasuryWallet",
          "type": "address"
        }
      ],
      "stateMutability": "nonpayable",
      "type": "constructor"
    },
    {
      "inputs": [
        {
          "internalType": "address",
          "name": "owner",
          "type": "address"
        }
      ],
      "name": "OwnableInvalidOwner",
      "type": "error"
    },
    {
      "inputs": [
        {
          "internalType": "address",
          "name": "account",
          "type": "address"
        }
      ],
      "name": "OwnableUnauthorizedAccount",
      "type": "error"
    },
    {
      "inputs": [],
      "name": "ReentrancyGuardReentrantCall",
      "type": "error"
    },
    {
      "anonymous": false,
      "inputs": [
        {
          "indexed": true,
          "internalType": "address",
          "name": "player",
          "type": "address"
        },
        {
          "indexed": false,
          "internalType": "uint256",
          "name": "wager",
          "type": "uint256"
        },
        {
          "indexed": false,
          "internalType": "bool",
          "name": "won",
          "type": "bool"
        },
        {
          "indexed": false,
          "internalType": "uint256",
          "name": "payout",
          "type": "uint256"
        }
      ],
      "name": "GamePlayed",
      "type": "event"
    },
    {
      "anonymous": false,
      "inputs": [
        {
          "indexed": true,
          "internalType": "address",
          "name": "previousOwner",
          "type": "address"
        },
        {
          "indexed": true,
          "internalType": "address",
          "name": "newOwner",
          "type": "address"
        }
      ],
      "name": "OwnershipTransferred",
      "type": "event"
    },
    {
      "anonymous": false,
      "inputs": [
        {
          "indexed": false,
          "internalType": "uint256",
          "name": "newFeePercentage",
          "type": "uint256"
        }
      ],
      "name": "TreasuryFeeUpdated",
      "type": "event"
    },
    {
      "anonymous": false,
      "inputs": [
        {
          "indexed": false,
          "internalType": "address",
          "name": "newTreasury",
          "type": "address"
        }
      ],
      "name": "TreasuryWalletUpdated",
      "type": "event"
    },
    {
      "inputs": [],
      "name": "WIN_PAYOUT_PERCENTAGE",
      "outputs": [
        {
          "internalType": "uint256",
          "name": "",
          "type": "uint256"
        }
      ],
      "stateMutability": "view",
      "type": "function"
    },
    {
      "inputs": [
        {
          "internalType": "uint256",
          "name": "amount",
          "type": "uint256"
        }
      ],
      "name": "fundBankroll",
      "outputs": [],
      "stateMutability": "nonpayable",
      "type": "function"
    },
    {
      "inputs": [],
      "name": "hashplayToken",
      "outputs": [
        {
          "internalType": "contract IERC20",
          "name": "",
          "type": "address"
        }
      ],
      "stateMutability": "view",
      "type": "function"
    },
    {
      "inputs": [],
      "name": "owner",
      "outputs": [
        {
          "internalType": "address",
          "name": "",
          "type": "address"
        }
      ],
      "stateMutability": "view",
      "type": "function"
    },
    {
      "inputs": [
        {
          "internalType": "uint256",
          "name": "wager",
          "type": "uint256"
        }
      ],
      "name": "playGame",
      "outputs": [],
      "stateMutability": "nonpayable",
      "type": "function"
    },
    {
      "inputs": [],
      "name": "renounceOwnership",
      "outputs": [],
      "stateMutability": "nonpayable",
      "type": "function"
    },
    {
      "inputs": [
        {
          "internalType": "uint256",
          "name": "_newFee",
          "type": "uint256"
        }
      ],
      "name": "setTreasuryFeePercentage",
      "outputs": [],
      "stateMutability": "nonpayable",
      "type": "function"
    },
    {
      "inputs": [
        {
          "internalType": "address",
          "name": "_newWallet",
          "type": "address"
        }
      ],
      "name": "setTreasuryWallet",
      "outputs": [],
      "stateMutability": "nonpayable",
      "type": "function"
    },
    {
      "inputs": [],
      "name": "totalGamesPlayed",
      "outputs": [
        {
          "internalType": "uint256",
          "name": "",
          "type": "uint256"
        }
      ],
      "stateMutability": "view",
      "type": "function"
    },
    {
      "inputs": [],
      "name": "totalTokensPaidOut",
      "outputs": [
        {
          "internalType": "uint256",
          "name": "",
          "type": "uint256"
        }
      ],
      "stateMutability": "view",
      "type": "function"
    },
    {
      "inputs": [
        {
          "internalType": "address",
          "name": "newOwner",
          "type": "address"
        }
      ],
      "name": "transferOwnership",
      "outputs": [],
      "stateMutability": "nonpayable",
      "type": "function"
    },
    {
      "inputs": [],
      "name": "treasuryFeePercentage",
      "outputs": [
        {
          "internalType": "uint256",
          "name": "",
          "type": "uint256"
        }
      ],
      "stateMutability": "view",
      "type": "function"
    },
    {
      "inputs": [],
      "name": "treasuryWallet",
      "outputs": [
        {
          "internalType": "address",
          "name": "",
          "type": "address"
        }
      ],
      "stateMutability": "view",
      "type": "function"
    },
    {
      "inputs": [
        {
          "internalType": "uint256",
          "name": "amount",
          "type": "uint256"
        }
      ],
      "name": "withdrawBankroll",
      "outputs": [],
      "stateMutability": "nonpayable",
      "type": "function"
    }
  ],
  "bytecode": "0x608060405260056002553480156200001657600080fd5b5060405162001fa338038062001fa383398181016040528101906200003c9190620003be565b33600073ffffffffffffffffffffffffffffffffffffffff168173ffffffffffffffffffffffffffffffffffffffff1603620000b25760006040517f1e4fbdf7000000000000000000000000000000000000000000000000000000008152600401620000a9919062000416565b60405180910390fd5b620000c3816200025b60201b60201c565b506001620000e6620000da6200031f60201b60201c565b6200034a60201b60201c565b60000181905550600073ffffffffffffffffffffffffffffffffffffffff168273ffffffffffffffffffffffffffffffffffffffff16036200015f576040517f08c379a0000000000000000000000000000000000000000000000000000000008152600401620001569062000494565b60405180910390fd5b600073ffffffffffffffffffffffffffffffffffffffff168173ffffffffffffffffffffffffffffffffffffffff1603620001d1576040517f08c379a0000000000000000000000000000000000000000000000000000000008152600401620001c89062000506565b60405180910390fd5b81600160006101000a81548173ffffffffffffffffffffffffffffffffffffffff021916908373ffffffffffffffffffffffffffffffffffffffff16021790555080600360006101000a81548173ffffffffffffffffffffffffffffffffffffffff021916908373ffffffffffffffffffffffffffffffffffffffff160217905550505062000528565b60008060009054906101000a900473ffffffffffffffffffffffffffffffffffffffff169050816000806101000a81548173ffffffffffffffffffffffffffffffffffffffff021916908373ffffffffffffffffffffffffffffffffffffffff1602179055508173ffffffffffffffffffffffffffffffffffffffff168173ffffffffffffffffffffffffffffffffffffffff167f8be0079c531659141344cd1fd0a4f28419497f9722a3daafe3b4186f6b6457e060405160405180910390a35050565b60007f9b779b17422d0df92223018b32b4d1fa46e071723d6817e2486d003becc55f0060001b905090565b6000819050919050565b600080fd5b600073ffffffffffffffffffffffffffffffffffffffff82169050919050565b6000620003868262000359565b9050919050565b620003988162000379565b8114620003a457600080fd5b50565b600081519050620003b8816200038d565b92915050565b60008060408385031215620003d857620003d762000354565b5b6000620003e885828601620003a7565b9250506020620003fb85828601620003a7565b9150509250929050565b620004108162000379565b82525050565b60006020820190506200042d600083018462000405565b92915050565b600082825260208201905092915050565b7f496e76616c696420746f6b656e20616464726573730000000000000000000000600082015250565b60006200047c60158362000433565b9150620004898262000444565b602082019050919050565b60006020820190508181036000830152620004af816200046d565b9050919050565b7f496e76616c696420747265617375727920616464726573730000000000000000600082015250565b6000620004ee60188362000433565b9150620004fb82620004b6565b602082019050919050565b600060208201905081810360008301526200052181620004df565b9050919050565b611a6b80620005386000396000f3fe608060405234801561001057600080fd5b50600436106100e95760003560e01c80635c4921291161008c5780638da5cb5b116100665780638da5cb5b14610200578063a8602fea1461021e578063cd0899621461023a578063f2fde38b14610256576100e9565b80635c492129146101bc578063715018a6146101da5780637a35bdd9146101e4576100e9565b80633d311667116100c85780633d311667146101465780634626402b146101645780634c09f37c146101825780635873533d146101a0576100e9565b806218dcd1146100ee57806319c767001461010c5780632457aed214610128575b600080fd5b6100f6610272565b6040516101039190611022565b60405180910390f35b6101266004803603810190610121919061106e565b610278565b005b610130610447565b60405161013d9190611022565b60405180910390f35b61014e61044c565b60405161015b919061111a565b60405180910390f35b61016c610472565b6040516101799190611156565b60405180910390f35b61018a610498565b6040516101979190611022565b60405180910390f35b6101ba60048036038101906101b5919061106e565b61049e565b005b6101c4610a60565b6040516101d19190611022565b60405180910390f35b6101e2610a66565b005b6101fe60048036038101906101f9919061106e565b610a7a565b005b610208610b66565b6040516102159190611156565b60405180910390f35b6102386004803603810190610233919061119d565b610b8f565b005b610254600480360381019061024f919061106e565b610c81565b005b610270600480360381019061026b919061119d565b610d0e565b005b60055481565b610280610d94565b80600160009054906101000a900473ffffffffffffffffffffffffffffffffffffffff1673ffffffffffffffffffffffffffffffffffffffff166370a08231306040518263ffffffff1660e01b81526004016102dc9190611156565b602060405180830381865afa1580156102f9573d6000803e3d6000fd5b505050506040513d601f19601f8201168201806040525081019061031d91906111df565b101561035e576040517f08c379a000000000000000000000000000000000000000000000000000000000815260040161035590611269565b60405180910390fd5b600160009054906101000a900473ffffffffffffffffffffffffffffffffffffffff1673ffffffffffffffffffffffffffffffffffffffff1663a9059cbb6103a4610b66565b836040518363ffffffff1660e01b81526004016103c2929190611289565b6020604051808303816000875af11580156103e1573d6000803e3d6000fd5b505050506040513d601f19601f8201168201806040525081019061040591906112ea565b610444576040517f08c379a000000000000000000000000000000000000000000000000000000000815260040161043b90611363565b60405180910390fd5b50565b607481565b600160009054906101000a900473ffffffffffffffffffffffffffffffffffffffff1681565b600360009054906101000a900473ffffffffffffffffffffffffffffffffffffffff1681565b60025481565b6104a6610e1b565b600081116104e9576040517f08c379a00000000000000000000000000000000000000000000000000000000081526004016104e0906113cf565b60405180910390fd5b80600160009054906101000a900473ffffffffffffffffffffffffffffffffffffffff1673ffffffffffffffffffffffffffffffffffffffff166370a08231336040518263ffffffff1660e01b81526004016105459190611156565b602060405180830381865afa158015610562573d6000803e3d6000fd5b505050506040513d601f19601f8201168201806040525081019061058691906111df565b10156105c7576040517f08c379a00000000000000000000000000000000000000000000000000000000081526004016105be9061143b565b60405180910390fd5b600160009054906101000a900473ffffffffffffffffffffffffffffffffffffffff1673ffffffffffffffffffffffffffffffffffffffff166323b872dd3330846040518463ffffffff1660e01b81526004016106269392919061145b565b6020604051808303816000875af1158015610645573d6000803e3d6000fd5b505050506040513d601f19601f8201168201806040525081019061066991906112ea565b6106a8576040517f08c379a000000000000000000000000000000000000000000000000000000000815260040161069f906114de565b60405180910390fd5b60006106b333610e3e565b9050600081156108be5760646074846106cc919061152d565b6106d6919061159e565b905080600160009054906101000a900473ffffffffffffffffffffffffffffffffffffffff1673ffffffffffffffffffffffffffffffffffffffff166370a08231306040518263ffffffff1660e01b81526004016107349190611156565b602060405180830381865afa158015610751573d6000803e3d6000fd5b505050506040513d601f19601f8201168201806040525081019061077591906111df565b10156107b6576040517f08c379a00000000000000000000000000000000000000000000000000000000081526004016107ad9061161b565b60405180910390fd5b600160009054906101000a900473ffffffffffffffffffffffffffffffffffffffff1673ffffffffffffffffffffffffffffffffffffffff1663a9059cbb33836040518363ffffffff1660e01b8152600401610813929190611289565b6020604051808303816000875af1158015610832573d6000803e3d6000fd5b505050506040513d601f19601f8201168201806040525081019061085691906112ea565b610895576040517f08c379a000000000000000000000000000000000000000000000000000000000815260040161088c90611687565b60405180910390fd5b82816108a191906116a7565b600560008282546108b291906116db565b925050819055506109e9565b60006064600254856108d0919061152d565b6108da919061159e565b905060008111156109e757600160009054906101000a900473ffffffffffffffffffffffffffffffffffffffff1673ffffffffffffffffffffffffffffffffffffffff1663a9059cbb600360009054906101000a900473ffffffffffffffffffffffffffffffffffffffff16836040518363ffffffff1660e01b8152600401610964929190611289565b6020604051808303816000875af1158015610983573d6000803e3d6000fd5b505050506040513d601f19601f820116820180604052508101906109a791906112ea565b6109e6576040517f08c379a00000000000000000000000000000000000000000000000000000000081526004016109dd9061175b565b60405180910390fd5b5b505b600460008154809291906109fc9061177b565b91905055503373ffffffffffffffffffffffffffffffffffffffff167f65eea1ff3a7b72d5b03bd8ee00aa3852069cc22df8cd96522e781b9c366f25c0848484604051610a4b939291906117d2565b60405180910390a25050610a5d610e8e565b50565b60045481565b610a6e610d94565b610a786000610ea9565b565b610a82610d94565b600160009054906101000a900473ffffffffffffffffffffffffffffffffffffffff1673ffffffffffffffffffffffffffffffffffffffff166323b872dd3330846040518463ffffffff1660e01b8152600401610ae19392919061145b565b6020604051808303816000875af1158015610b00573d6000803e3d6000fd5b505050506040513d601f19601f82011682018060405250810190610b2491906112ea565b610b63576040517f08c379a0000000000000000000000000000000000000000000000000000000008152600401610b5a90611855565b60405180910390fd5b50565b60008060009054906101000a900473ffffffffffffffffffffffffffffffffffffffff16905090565b610b97610d94565b600073ffffffffffffffffffffffffffffffffffffffff168173ffffffffffffffffffffffffffffffffffffffff1603610c06576040517f08c379a0000000000000000000000000000000000000000000000000000000008152600401610bfd906118c1565b60405180910390fd5b80600360006101000a81548173ffffffffffffffffffffffffffffffffffffffff021916908373ffffffffffffffffffffffffffffffffffffffff1602179055507f97c79b3848e51f57983ac89e4403452655c8d83ceba8199011de63a74f60d1a781604051610c769190611156565b60405180910390a150565b610c89610d94565b6014811115610ccd576040517f08c379a0000000000000000000000000000000000000000000000000000000008152600401610cc49061192d565b60405180910390fd5b806002819055507ffdc6c17f190a1a7e236af2f7387d9494b31405f8f9fad26e36a7fefe7190cef881604051610d039190611022565b60405180910390a150565b610d16610d94565b600073ffffffffffffffffffffffffffffffffffffffff168173ffffffffffffffffffffffffffffffffffffffff1603610d885760006040517f1e4fbdf7000000000000000000000000000000000000000000000000000000008152600401610d7f9190611156565b60405180910390fd5b610d9181610ea9565b50565b610d9c610f6d565b73ffffffffffffffffffffffffffffffffffffffff16610dba610b66565b73ffffffffffffffffffffffffffffffffffffffff1614610e1957610ddd610f6d565b6040517f118cdaa7000000000000000000000000000000000000000000000000000000008152600401610e109190611156565b60405180910390fd5b565b610e23610f75565b6002610e35610e30610fb6565b610fe1565b60000181905550565b600080424484600454604051602001610e5a94939291906119b6565b6040516020818303038152906040528051906020012060001c90506032606482610e849190611a04565b1015915050919050565b6001610ea0610e9b610fb6565b610fe1565b60000181905550565b60008060009054906101000a900473ffffffffffffffffffffffffffffffffffffffff169050816000806101000a81548173ffffffffffffffffffffffffffffffffffffffff021916908373ffffffffffffffffffffffffffffffffffffffff1602179055508173ffffffffffffffffffffffffffffffffffffffff168173ffffffffffffffffffffffffffffffffffffffff167f8be0079c531659141344cd1fd0a4f28419497f9722a3daafe3b4186f6b6457e060405160405180910390a35050565b600033905090565b610f7d610feb565b15610fb4576040517f3ee5aeb500000000000000000000000000000000000000000000000000000000815260040160405180910390fd5b565b60007f9b779b17422d0df92223018b32b4d1fa46e071723d6817e2486d003becc55f0060001b905090565b6000819050919050565b60006002610fff610ffa610fb6565b610fe1565b6000015414905090565b6000819050919050565b61101c81611009565b82525050565b60006020820190506110376000830184611013565b92915050565b600080fd5b61104b81611009565b811461105657600080fd5b50565b60008135905061106881611042565b92915050565b6000602082840312156110845761108361103d565b5b600061109284828501611059565b91505092915050565b600073ffffffffffffffffffffffffffffffffffffffff82169050919050565b6000819050919050565b60006110e06110db6110d68461109b565b6110bb565b61109b565b9050919050565b60006110f2826110c5565b9050919050565b6000611104826110e7565b9050919050565b611114816110f9565b82525050565b600060208201905061112f600083018461110b565b92915050565b60006111408261109b565b9050919050565b61115081611135565b82525050565b600060208201905061116b6000830184611147565b92915050565b61117a81611135565b811461118557600080fd5b50565b60008135905061119781611171565b92915050565b6000602082840312156111b3576111b261103d565b5b60006111c184828501611188565b91505092915050565b6000815190506111d981611042565b92915050565b6000602082840312156111f5576111f461103d565b5b6000611203848285016111ca565b91505092915050565b600082825260208201905092915050565b7f496e73756666696369656e742066756e64730000000000000000000000000000600082015250565b600061125360128361120c565b915061125e8261121d565b602082019050919050565b6000602082019050818103600083015261128281611246565b9050919050565b600060408201905061129e6000830185611147565b6112ab6020830184611013565b9392505050565b60008115159050919050565b6112c7816112b2565b81146112d257600080fd5b50565b6000815190506112e4816112be565b92915050565b600060208284031215611300576112ff61103d565b5b600061130e848285016112d5565b91505092915050565b7f5769746864726177616c206661696c6564000000000000000000000000000000600082015250565b600061134d60118361120c565b915061135882611317565b602082019050919050565b6000602082019050818103600083015261137c81611340565b9050919050565b7f5761676572206d7573742062652067726561746572207468616e203000000000600082015250565b60006113b9601c8361120c565b91506113c482611383565b602082019050919050565b600060208201905081810360008301526113e8816113ac565b9050919050565b7f496e73756666696369656e7420746f6b656e2062616c616e6365000000000000600082015250565b6000611425601a8361120c565b9150611430826113ef565b602082019050919050565b6000602082019050818103600083015261145481611418565b9050919050565b60006060820190506114706000830186611147565b61147d6020830185611147565b61148a6040830184611013565b949350505050565b7f5761676572207472616e73666572206661696c65640000000000000000000000600082015250565b60006114c860158361120c565b91506114d382611492565b602082019050919050565b600060208201905081810360008301526114f7816114bb565b9050919050565b7f4e487b7100000000000000000000000000000000000000000000000000000000600052601160045260246000fd5b600061153882611009565b915061154383611009565b925082820261155181611009565b91508282048414831517611568576115676114fe565b5b5092915050565b7f4e487b7100000000000000000000000000000000000000000000000000000000600052601260045260246000fd5b60006115a982611009565b91506115b483611009565b9250826115c4576115c361156f565b5b828204905092915050565b7f496e73756666696369656e7420636f6e7472616374206c697175696469747900600082015250565b6000611605601f8361120c565b9150611610826115cf565b602082019050919050565b60006020820190508181036000830152611634816115f8565b9050919050565b7f5061796f7574207472616e73666572206661696c656400000000000000000000600082015250565b600061167160168361120c565b915061167c8261163b565b602082019050919050565b600060208201905081810360008301526116a081611664565b9050919050565b60006116b282611009565b91506116bd83611009565b92508282039050818111156116d5576116d46114fe565b5b92915050565b60006116e682611009565b91506116f183611009565b9250828201905080821115611709576117086114fe565b5b92915050565b7f466565207472616e73666572206661696c656400000000000000000000000000600082015250565b600061174560138361120c565b91506117508261170f565b602082019050919050565b6000602082019050818103600083015261177481611738565b9050919050565b600061178682611009565b91507fffffffffffffffffffffffffffffffffffffffffffffffffffffffffffffffff82036117b8576117b76114fe565b5b600182019050919050565b6117cc816112b2565b82525050565b60006060820190506117e76000830186611013565b6117f460208301856117c3565b6118016040830184611013565b949350505050565b7f46756e64696e67206661696c6564000000000000000000000000000000000000600082015250565b600061183f600e8361120c565b915061184a82611809565b602082019050919050565b6000602082019050818103600083015261186e81611832565b9050919050565b7f496e76616c696420616464726573730000000000000000000000000000000000600082015250565b60006118ab600f8361120c565b91506118b682611875565b602082019050919050565b600060208201905081810360008301526118da8161189e565b9050919050565b7f46656520746f6f20686967680000000000000000000000000000000000000000600082015250565b6000611917600c8361120c565b9150611922826118e1565b602082019050919050565b600060208201905081810360008301526119468161190a565b9050919050565b6000819050919050565b61196861196382611009565b61194d565b82525050565b60008160601b9050919050565b60006119868261196e565b9050919050565b60006119988261197b565b9050919050565b6119b06119ab82611135565b61198d565b82525050565b60006119c28287611957565b6020820191506119d28286611957565b6020820191506119e2828561199f565b6014820191506119f28284611957565b60208201915081905095945050505050565b6000611a0f82611009565b9150611a1a83611009565b925082611a2a57611a2961156f565b5b82820690509291505056fea264697066735822122093479d61bdcc71ea8523e0f5b10d3bea7503491e52185e25bedca4615490786264736f6c63430008140033",
  "linkReferences": {},
  "deployedLinkReferences": {}
}