{
  "_format": "hh-sol-artifact-1",
  "contractName": "HashplayArenaV2",
  "sourceName": "contracts/HashplayArenaV2.sol",
  "abi": [
    {
      "inputs": [
        {
          "internalType": "address",
          "name": "_hashplayToken",
          "type": "address"
        }
      ],
      "stateMutability": "nonpayable",
      "type": "constructor"
    },
    {
      "inputs": [
        {
          "internalType": "address",
          "name": "owner",
          "type": "address"
        }
      ],
      "name": "OwnableInvalidOwner",
      "type": "error"
    },
    {
      "inputs": [
        {
          "internalType": "address",
          "name": "account",
          "type": "address"
        }
      ],
      "name": "OwnableUnauthorizedAccount",
      "type": "error"
    },
    {
      "inputs": [],
      "name": "ReentrancyGuardReentrantCall",
      "type": "error"
    },
    {
      "anonymous": false,
      "inputs": [
        {
          "indexed": true,
          "internalType": "address",
          "name": "player",
          "type": "address"
        },
        {
          "indexed": false,
          "internalType": "uint8",
          "name": "gameType",
          "type": "uint8"
        },
        {
          "indexed": false,
          "internalType": "uint8",
          "name": "prediction",
          "type": "uint8"
        },
        {
          "indexed": false,
          "internalType": "uint256",
          "name": "wager",
          "type": "uint256"
        },
        {
          "indexed": false,
          "internalType": "bool",
          "name": "won",
          "type": "bool"
        },
        {
          "indexed": false,
          "internalType": "uint256",
          "name": "hbarPayout",
          "type": "uint256"
        },
        {
          "indexed": false,
          "internalType": "uint256",
          "name": "hashplayReward",
          "type": "uint256"
        },
        {
          "indexed": false,
          "internalType": "uint256",
          "name": "rollResult",
          "type": "uint256"
        }
      ],
      "name": "GameResult",
      "type": "event"
    },
    {
      "anonymous": false,
      "inputs": [
        {
          "indexed": true,
          "internalType": "address",
          "name": "previousOwner",
          "type": "address"
        },
        {
          "indexed": true,
          "internalType": "address",
          "name": "newOwner",
          "type": "address"
        }
      ],
      "name": "OwnershipTransferred",
      "type": "event"
    },
    {
      "inputs": [],
      "name": "fundBankroll",
      "outputs": [],
      "stateMutability": "payable",
      "type": "function"
    },
    {
      "inputs": [],
      "name": "hashplayToken",
      "outputs": [
        {
          "internalType": "address",
          "name": "",
          "type": "address"
        }
      ],
      "stateMutability": "view",
      "type": "function"
    },
    {
      "inputs": [],
      "name": "owner",
      "outputs": [
        {
          "internalType": "address",
          "name": "",
          "type": "address"
        }
      ],
      "stateMutability": "view",
      "type": "function"
    },
    {
      "inputs": [
        {
          "internalType": "uint8",
          "name": "gameType",
          "type": "uint8"
        },
        {
          "internalType": "uint8",
          "name": "prediction",
          "type": "uint8"
        }
      ],
      "name": "play",
      "outputs": [],
      "stateMutability": "payable",
      "type": "function"
    },
    {
      "inputs": [],
      "name": "renounceOwnership",
      "outputs": [],
      "stateMutability": "nonpayable",
      "type": "function"
    },
    {
      "inputs": [
        {
          "internalType": "address",
          "name": "newOwner",
          "type": "address"
        }
      ],
      "name": "transferOwnership",
      "outputs": [],
      "stateMutability": "nonpayable",
      "type": "function"
    },
    {
      "inputs": [
        {
          "internalType": "address",
          "name": "_newToken",
          "type": "address"
        }
      ],
      "name": "updateToken",
      "outputs": [],
      "stateMutability": "nonpayable",
      "type": "function"
    },
    {
      "inputs": [
        {
          "internalType": "uint256",
          "name": "amount",
          "type": "uint256"
        }
      ],
      "name": "withdrawHBAR",
      "outputs": [],
      "stateMutability": "nonpayable",
      "type": "function"
    },
    {
      "inputs": [
        {
          "internalType": "uint256",
          "name": "amount",
          "type": "uint256"
        }
      ],
      "name": "withdrawTokens",
      "outputs": [],
      "stateMutability": "nonpayable",
      "type": "function"
    },
    {
      "stateMutability": "payable",
      "type": "receive"
    }
  ],
  "bytecode": "0x60806040523480156200001157600080fd5b50604051620019a7380380620019a7833981810160405281019062000037919062000293565b33600073ffffffffffffffffffffffffffffffffffffffff168173ffffffffffffffffffffffffffffffffffffffff1603620000ad5760006040517f1e4fbdf7000000000000000000000000000000000000000000000000000000008152600401620000a49190620002d6565b60405180910390fd5b620000be816200013060201b60201c565b506001620000e1620000d5620001f460201b60201c565b6200021f60201b60201c565b6000018190555080600160006101000a81548173ffffffffffffffffffffffffffffffffffffffff021916908373ffffffffffffffffffffffffffffffffffffffff16021790555050620002f3565b60008060009054906101000a900473ffffffffffffffffffffffffffffffffffffffff169050816000806101000a81548173ffffffffffffffffffffffffffffffffffffffff021916908373ffffffffffffffffffffffffffffffffffffffff1602179055508173ffffffffffffffffffffffffffffffffffffffff168173ffffffffffffffffffffffffffffffffffffffff167f8be0079c531659141344cd1fd0a4f28419497f9722a3daafe3b4186f6b6457e060405160405180910390a35050565b60007f9b779b17422d0df92223018b32b4d1fa46e071723d6817e2486d003becc55f0060001b905090565b6000819050919050565b600080fd5b600073ffffffffffffffffffffffffffffffffffffffff82169050919050565b60006200025b826200022e565b9050919050565b6200026d816200024e565b81146200027957600080fd5b50565b6000815190506200028d8162000262565b92915050565b600060208284031215620002ac57620002ab62000229565b5b6000620002bc848285016200027c565b91505092915050565b620002d0816200024e565b82525050565b6000602082019050620002ed6000830184620002c5565b92915050565b6116a480620003036000396000f3fe60806040526004361061008a5760003560e01c80637ad3def2116100595780637ad3def21461010b5780638da5cb5b14610134578063a9a0c7ff1461015f578063e802c36f14610188578063f2fde38b146101a457610091565b8063315a095d146100965780633d311667146100bf578063715018a6146100ea578063753fab131461010157610091565b3661009157005b600080fd5b3480156100a257600080fd5b506100bd60048036038101906100b89190610e51565b6101cd565b005b3480156100cb57600080fd5b506100d461034a565b6040516100e19190610ebf565b60405180910390f35b3480156100f657600080fd5b506100ff610370565b005b610109610384565b005b34801561011757600080fd5b50610132600480360381019061012d9190610f06565b610386565b005b34801561014057600080fd5b506101496103d2565b6040516101569190610ebf565b60405180910390f35b34801561016b57600080fd5b5061018660048036038101906101819190610e51565b6103fb565b005b6101a2600480360381019061019d9190610f6c565b6104fd565b005b3480156101b057600080fd5b506101cb60048036038101906101c69190610f06565b6108c1565b005b6101d5610947565b6000819050600061016773ffffffffffffffffffffffffffffffffffffffff16600160009054906101000a900473ffffffffffffffffffffffffffffffffffffffff16306102216103d2565b856040516024016102359493929190610fc8565b6040516020818303038152906040527feca36917000000000000000000000000000000000000000000000000000000007bffffffffffffffffffffffffffffffffffffffffffffffffffffffff19166020820180517bffffffffffffffffffffffffffffffffffffffffffffffffffffffff83818316178352505050506040516102bf919061107e565b6000604051808303816000865af19150503d80600081146102fc576040519150601f19603f3d011682016040523d82523d6000602084013e610301565b606091505b5050905080610345576040517f08c379a000000000000000000000000000000000000000000000000000000000815260040161033c906110f2565b60405180910390fd5b505050565b600160009054906101000a900473ffffffffffffffffffffffffffffffffffffffff1681565b610378610947565b61038260006109ce565b565b565b61038e610947565b80600160006101000a81548173ffffffffffffffffffffffffffffffffffffffff021916908373ffffffffffffffffffffffffffffffffffffffff16021790555050565b60008060009054906101000a900473ffffffffffffffffffffffffffffffffffffffff16905090565b610403610947565b80471015610446576040517f08c379a000000000000000000000000000000000000000000000000000000000815260040161043d9061115e565b60405180910390fd5b60006104506103d2565b73ffffffffffffffffffffffffffffffffffffffff1682604051610473906111a4565b60006040518083038185875af1925050503d80600081146104b0576040519150601f19603f3d011682016040523d82523d6000602084013e6104b5565b606091505b50509050806104f9576040517f08c379a00000000000000000000000000000000000000000000000000000000081526004016104f090611205565b60405180910390fd5b5050565b610505610a92565b60003411610548576040517f08c379a000000000000000000000000000000000000000000000000000000000815260040161053f90611271565b60405180910390fd5b60018260ff16148061055d575060028260ff16145b61059c576040517f08c379a0000000000000000000000000000000000000000000000000000000008152600401610593906112dd565b60405180910390fd5b600042443334866040516020016105b795949392919061139c565b6040516020818303038152906040528051906020012060001c9050600080600060018660ff16036106d257600060016006866105f3919061142a565b6105fd919061148a565b9050600060016006600a8861061291906114be565b61061c919061142a565b610626919061148a565b90508082610634919061148a565b925060018760ff161480156106495750600783105b156106575760019450610697565b60028760ff1614801561066a5750600783145b156106785760019450610696565b60038760ff1614801561068b5750600783115b1561069557600194505b5b5b84156106cb5760028760ff16146106ba576002346106b591906114ef565b6106c8565b6004346106c791906114ef565b5b93505b5050610766565b60016064856106e1919061142a565b6106eb919061148a565b9050603181101580156106ff575060348111155b1561070d576000925061074f565b60018560ff16148015610721575060308111155b1561072f576001925061074e565b60028560ff16148015610743575060358110155b1561074d57600192505b5b5b82156107655760023461076291906114ef565b91505b5b6000831561083c574783111561077a574792505b60003373ffffffffffffffffffffffffffffffffffffffff16846040516107a0906111a4565b60006040518083038185875af1925050503d80600081146107dd576040519150601f19603f3d011682016040523d82523d6000602084013e6107e2565b606091505b5050905080610826576040517f08c379a000000000000000000000000000000000000000000000000000000000815260040161081d9061157d565b60405180910390fd5b6101f43461083491906114ef565b91505061084c565b60c83461084991906114ef565b90505b6108563382610ab5565b3373ffffffffffffffffffffffffffffffffffffffff167f3ff1bbfe2ddc910863e4520f9b7ee9b9095d766c1bfa3a544c517bd44b5371e6888834888887896040516108a897969594939291906115d6565b60405180910390a250505050506108bd610d5f565b5050565b6108c9610947565b600073ffffffffffffffffffffffffffffffffffffffff168173ffffffffffffffffffffffffffffffffffffffff160361093b5760006040517f1e4fbdf70000000000000000000000000000000000000000000000000000000081526004016109329190610ebf565b60405180910390fd5b610944816109ce565b50565b61094f610d7a565b73ffffffffffffffffffffffffffffffffffffffff1661096d6103d2565b73ffffffffffffffffffffffffffffffffffffffff16146109cc57610990610d7a565b6040517f118cdaa70000000000000000000000000000000000000000000000000000000081526004016109c39190610ebf565b60405180910390fd5b565b60008060009054906101000a900473ffffffffffffffffffffffffffffffffffffffff169050816000806101000a81548173ffffffffffffffffffffffffffffffffffffffff021916908373ffffffffffffffffffffffffffffffffffffffff1602179055508173ffffffffffffffffffffffffffffffffffffffff168173ffffffffffffffffffffffffffffffffffffffff167f8be0079c531659141344cd1fd0a4f28419497f9722a3daafe3b4186f6b6457e060405160405180910390a35050565b610a9a610d82565b6002610aac610aa7610dc3565b610dee565b60000181905550565b6000811480610b125750600073ffffffffffffffffffffffffffffffffffffffff16600160009054906101000a900473ffffffffffffffffffffffffffffffffffffffff1673ffffffffffffffffffffffffffffffffffffffff16145b610d5b57600081905061016773ffffffffffffffffffffffffffffffffffffffff1683600160009054906101000a900473ffffffffffffffffffffffffffffffffffffffff16604051602401610b69929190611645565b6040516020818303038152906040527f49146bde000000000000000000000000000000000000000000000000000000007bffffffffffffffffffffffffffffffffffffffffffffffffffffffff19166020820180517bffffffffffffffffffffffffffffffffffffffffffffffffffffffff8381831617835250505050604051610bf3919061107e565b6000604051808303816000865af19150503d8060008114610c30576040519150601f19603f3d011682016040523d82523d6000602084013e610c35565b606091505b50505061016773ffffffffffffffffffffffffffffffffffffffff16600160009054906101000a900473ffffffffffffffffffffffffffffffffffffffff16308584604051602401610c8a9493929190610fc8565b6040516020818303038152906040527feca36917000000000000000000000000000000000000000000000000000000007bffffffffffffffffffffffffffffffffffffffffffffffffffffffff19166020820180517bffffffffffffffffffffffffffffffffffffffffffffffffffffffff8381831617835250505050604051610d14919061107e565b6000604051808303816000865af19150503d8060008114610d51576040519150601f19603f3d011682016040523d82523d6000602084013e610d56565b606091505b505050505b5050565b6001610d71610d6c610dc3565b610dee565b60000181905550565b600033905090565b610d8a610df8565b15610dc1576040517f3ee5aeb500000000000000000000000000000000000000000000000000000000815260040160405180910390fd5b565b60007f9b779b17422d0df92223018b32b4d1fa46e071723d6817e2486d003becc55f0060001b905090565b6000819050919050565b60006002610e0c610e07610dc3565b610dee565b6000015414905090565b600080fd5b6000819050919050565b610e2e81610e1b565b8114610e3957600080fd5b50565b600081359050610e4b81610e25565b92915050565b600060208284031215610e6757610e66610e16565b5b6000610e7584828501610e3c565b91505092915050565b600073ffffffffffffffffffffffffffffffffffffffff82169050919050565b6000610ea982610e7e565b9050919050565b610eb981610e9e565b82525050565b6000602082019050610ed46000830184610eb0565b92915050565b610ee381610e9e565b8114610eee57600080fd5b50565b600081359050610f0081610eda565b92915050565b600060208284031215610f1c57610f1b610e16565b5b6000610f2a84828501610ef1565b91505092915050565b600060ff82169050919050565b610f4981610f33565b8114610f5457600080fd5b50565b600081359050610f6681610f40565b92915050565b60008060408385031215610f8357610f82610e16565b5b6000610f9185828601610f57565b9250506020610fa285828601610f57565b9150509250929050565b60008160070b9050919050565b610fc281610fac565b82525050565b6000608082019050610fdd6000830187610eb0565b610fea6020830186610eb0565b610ff76040830185610eb0565b6110046060830184610fb9565b95945050505050565b600081519050919050565b600081905092915050565b60005b83811015611041578082015181840152602081019050611026565b60008484015250505050565b60006110588261100d565b6110628185611018565b9350611072818560208601611023565b80840191505092915050565b600061108a828461104d565b915081905092915050565b600082825260208201905092915050565b7f546f6b656e207769746864726177616c206661696c6564000000000000000000600082015250565b60006110dc601783611095565b91506110e7826110a6565b602082019050919050565b6000602082019050818103600083015261110b816110cf565b9050919050565b7f496e73756666696369656e742062616c616e6365000000000000000000000000600082015250565b6000611148601483611095565b915061115382611112565b602082019050919050565b600060208201905081810360008301526111778161113b565b9050919050565b50565b600061118e600083611018565b91506111998261117e565b600082019050919050565b60006111af82611181565b9150819050919050565b7f5769746864726177616c206661696c6564000000000000000000000000000000600082015250565b60006111ef601183611095565b91506111fa826111b9565b602082019050919050565b6000602082019050818103600083015261121e816111e2565b9050919050565b7f5761676572206d757374206265203e2030000000000000000000000000000000600082015250565b600061125b601183611095565b915061126682611225565b602082019050919050565b6000602082019050818103600083015261128a8161124e565b9050919050565b7f496e76616c69642067616d652074797065000000000000000000000000000000600082015250565b60006112c7601183611095565b91506112d282611291565b602082019050919050565b600060208201905081810360008301526112f6816112ba565b9050919050565b6000819050919050565b61131861131382610e1b565b6112fd565b82525050565b60008160601b9050919050565b60006113368261131e565b9050919050565b60006113488261132b565b9050919050565b61136061135b82610e9e565b61133d565b82525050565b60008160f81b9050919050565b600061137e82611366565b9050919050565b61139661139182610f33565b611373565b82525050565b60006113a88288611307565b6020820191506113b88287611307565b6020820191506113c8828661134f565b6014820191506113d88285611307565b6020820191506113e88284611385565b6001820191508190509695505050505050565b7f4e487b7100000000000000000000000000000000000000000000000000000000600052601260045260246000fd5b600061143582610e1b565b915061144083610e1b565b9250826114505761144f6113fb565b5b828206905092915050565b7f4e487b7100000000000000000000000000000000000000000000000000000000600052601160045260246000fd5b600061149582610e1b565b91506114a083610e1b565b92508282019050808211156114b8576114b761145b565b5b92915050565b60006114c982610e1b565b91506114d483610e1b565b9250826114e4576114e36113fb565b5b828204905092915050565b60006114fa82610e1b565b915061150583610e1b565b925082820261151381610e1b565b9150828204841483151761152a5761152961145b565b5b5092915050565b7f48424152207061796f7574206661696c65640000000000000000000000000000600082015250565b6000611567601283611095565b915061157282611531565b602082019050919050565b600060208201905081810360008301526115968161155a565b9050919050565b6115a681610f33565b82525050565b6115b581610e1b565b82525050565b60008115159050919050565b6115d0816115bb565b82525050565b600060e0820190506115eb600083018a61159d565b6115f8602083018961159d565b61160560408301886115ac565b61161260608301876115c7565b61161f60808301866115ac565b61162c60a08301856115ac565b61163960c08301846115ac565b98975050505050505050565b600060408201905061165a6000830185610eb0565b6116676020830184610eb0565b939250505056fea2646970667358221220b9cea1dbcca4b71960bc0c018e17dcef28c63597fb64a3289315272aea92e72064736f6c63430008140033",
  "linkReferences": {},
  "deployedLinkReferences": {}
}