{
  "_format": "hh-sol-artifact-1",
  "contractName": "HashplayGame",
  "sourceName": "contracts/HashplayGame.sol",
  "abi": [
    {
      "inputs": [
        {
          "internalType": "address",
          "name": "_hashplayToken",
          "type": "address"
        }
      ],
      "stateMutability": "nonpayable",
      "type": "constructor"
    },
    {
      "anonymous": false,
      "inputs": [
        {
          "indexed": true,
          "internalType": "address",
          "name": "player",
          "type": "address"
        },
        {
          "indexed": false,
          "internalType": "uint256",
          "name": "wager",
          "type": "uint256"
        },
        {
          "indexed": false,
          "internalType": "bool",
          "name": "won",
          "type": "bool"
        },
        {
          "indexed": false,
          "internalType": "uint256",
          "name": "hbarPayout",
          "type": "uint256"
        },
        {
          "indexed": false,
          "internalType": "uint256",
          "name": "hashplayReward",
          "type": "uint256"
        }
      ],
      "name": "GameResult",
      "type": "event"
    },
    {
      "stateMutability": "payable",
      "type": "fallback"
    },
    {
      "inputs": [],
      "name": "LOSE_HASHPLAY_REWARD",
      "outputs": [
        {
          "internalType": "uint256",
          "name": "",
          "type": "uint256"
        }
      ],
      "stateMutability": "view",
      "type": "function"
    },
    {
      "inputs": [],
      "name": "WIN_HASHPLAY_REWARD",
      "outputs": [
        {
          "internalType": "uint256",
          "name": "",
          "type": "uint256"
        }
      ],
      "stateMutability": "view",
      "type": "function"
    },
    {
      "inputs": [],
      "name": "fundBankroll",
      "outputs": [],
      "stateMutability": "payable",
      "type": "function"
    },
    {
      "inputs": [],
      "name": "hashplayToken",
      "outputs": [
        {
          "internalType": "address",
          "name": "",
          "type": "address"
        }
      ],
      "stateMutability": "view",
      "type": "function"
    },
    {
      "inputs": [],
      "name": "owner",
      "outputs": [
        {
          "internalType": "address",
          "name": "",
          "type": "address"
        }
      ],
      "stateMutability": "view",
      "type": "function"
    },
    {
      "inputs": [],
      "name": "play",
      "outputs": [],
      "stateMutability": "payable",
      "type": "function"
    },
    {
      "inputs": [
        {
          "internalType": "address",
          "name": "_newToken",
          "type": "address"
        }
      ],
      "name": "updateToken",
      "outputs": [],
      "stateMutability": "nonpayable",
      "type": "function"
    },
    {
      "inputs": [
        {
          "internalType": "uint256",
          "name": "amount",
          "type": "uint256"
        }
      ],
      "name": "withdrawHBAR",
      "outputs": [],
      "stateMutability": "nonpayable",
      "type": "function"
    },
    {
      "inputs": [
        {
          "internalType": "uint256",
          "name": "amount",
          "type": "uint256"
        }
      ],
      "name": "withdrawTokens",
      "outputs": [],
      "stateMutability": "nonpayable",
      "type": "function"
    },
    {
      "stateMutability": "payable",
      "type": "receive"
    }
  ],
  "bytecode": "0x608060405234801561001057600080fd5b506040516200105d3803806200105d8339818101604052810190610034919061011e565b336000806101000a81548173ffffffffffffffffffffffffffffffffffffffff021916908373ffffffffffffffffffffffffffffffffffffffff16021790555080600160006101000a81548173ffffffffffffffffffffffffffffffffffffffff021916908373ffffffffffffffffffffffffffffffffffffffff1602179055505061014b565b600080fd5b600073ffffffffffffffffffffffffffffffffffffffff82169050919050565b60006100eb826100c0565b9050919050565b6100fb816100e0565b811461010657600080fd5b50565b600081519050610118816100f2565b92915050565b600060208284031215610134576101336100bb565b5b600061014284828501610109565b91505092915050565b610f02806200015b6000396000f3fe60806040526004361061008a5760003560e01c80637ad3def2116100595780637ad3def21461011c5780638da5cb5b1461014557806393e84cd9146101705780639bdfb4331461017a578063a9a0c7ff146101a557610091565b8063315a095d146100935780633d311667146100bc578063408458bb146100e7578063753fab131461011257610091565b3661009157005b005b34801561009f57600080fd5b506100ba60048036038101906100b5919061092d565b6101ce565b005b3480156100c857600080fd5b506100d1610320565b6040516100de919061099b565b60405180910390f35b3480156100f357600080fd5b506100fc610346565b60405161010991906109c5565b60405180910390f35b61011a61034f565b005b34801561012857600080fd5b50610143600480360381019061013e9190610a0c565b6103df565b005b34801561015157600080fd5b5061015a6104b1565b604051610167919061099b565b60405180910390f35b6101786104d5565b005b34801561018657600080fd5b5061018f61067c565b60405161019c91906109c5565b60405180910390f35b3480156101b157600080fd5b506101cc60048036038101906101c7919061092d565b610685565b005b60008054906101000a900473ffffffffffffffffffffffffffffffffffffffff1673ffffffffffffffffffffffffffffffffffffffff163373ffffffffffffffffffffffffffffffffffffffff161461025c576040517f08c379a000000000000000000000000000000000000000000000000000000000815260040161025390610a96565b60405180910390fd5b600160009054906101000a900473ffffffffffffffffffffffffffffffffffffffff1673ffffffffffffffffffffffffffffffffffffffff1663a9059cbb60008054906101000a900473ffffffffffffffffffffffffffffffffffffffff16836040518363ffffffff1660e01b81526004016102d9929190610ab6565b6020604051808303816000875af11580156102f8573d6000803e3d6000fd5b505050506040513d601f19601f8201168201806040525081019061031c9190610b17565b5050565b600160009054906101000a900473ffffffffffffffffffffffffffffffffffffffff1681565b640ba43b740081565b60008054906101000a900473ffffffffffffffffffffffffffffffffffffffff1673ffffffffffffffffffffffffffffffffffffffff163373ffffffffffffffffffffffffffffffffffffffff16146103dd576040517f08c379a00000000000000000000000000000000000000000000000000000000081526004016103d490610a96565b60405180910390fd5b565b60008054906101000a900473ffffffffffffffffffffffffffffffffffffffff1673ffffffffffffffffffffffffffffffffffffffff163373ffffffffffffffffffffffffffffffffffffffff161461046d576040517f08c379a000000000000000000000000000000000000000000000000000000000815260040161046490610a96565b60405180910390fd5b80600160006101000a81548173ffffffffffffffffffffffffffffffffffffffff021916908373ffffffffffffffffffffffffffffffffffffffff16021790555050565b60008054906101000a900473ffffffffffffffffffffffffffffffffffffffff1681565b60003411610518576040517f08c379a000000000000000000000000000000000000000000000000000000000815260040161050f90610b90565b60405180910390fd5b60006002424433346040516020016105339493929190610c19565b6040516020818303038152906040528051906020012060001c6105569190610c96565b90506000600182149050600080821561060f576002346105769190610cf6565b9150640ba43b74009050814710156105c3576040517f08c379a00000000000000000000000000000000000000000000000000000000081526004016105ba90610daa565b60405180910390fd5b3373ffffffffffffffffffffffffffffffffffffffff166108fc839081150290604051600060405180830381858888f19350505050158015610609573d6000803e3d6000fd5b50610618565b6404a817c80090505b61062233826107c0565b3373ffffffffffffffffffffffffffffffffffffffff167f2b93076a824b64ee22363ab116d83a15892b815507defda2629b97ed376d0d843485858560405161066e9493929190610dd9565b60405180910390a250505050565b6404a817c80081565b60008054906101000a900473ffffffffffffffffffffffffffffffffffffffff1673ffffffffffffffffffffffffffffffffffffffff163373ffffffffffffffffffffffffffffffffffffffff1614610713576040517f08c379a000000000000000000000000000000000000000000000000000000000815260040161070a90610a96565b60405180910390fd5b80471015610756576040517f08c379a000000000000000000000000000000000000000000000000000000000815260040161074d90610e6a565b60405180910390fd5b60008054906101000a900473ffffffffffffffffffffffffffffffffffffffff1673ffffffffffffffffffffffffffffffffffffffff166108fc829081150290604051600060405180830381858888f193505050501580156107bc573d6000803e3d6000fd5b5050565b6000600160009054906101000a900473ffffffffffffffffffffffffffffffffffffffff16905060008173ffffffffffffffffffffffffffffffffffffffff166370a08231306040518263ffffffff1660e01b8152600401610822919061099b565b602060405180830381865afa15801561083f573d6000803e3d6000fd5b505050506040513d601f19601f820116820180604052508101906108639190610e9f565b90508281106108ec578173ffffffffffffffffffffffffffffffffffffffff1663a9059cbb85856040518363ffffffff1660e01b81526004016108a7929190610ab6565b6020604051808303816000875af11580156108c6573d6000803e3d6000fd5b505050506040513d601f19601f820116820180604052508101906108ea9190610b17565b505b50505050565b600080fd5b6000819050919050565b61090a816108f7565b811461091557600080fd5b50565b60008135905061092781610901565b92915050565b600060208284031215610943576109426108f2565b5b600061095184828501610918565b91505092915050565b600073ffffffffffffffffffffffffffffffffffffffff82169050919050565b60006109858261095a565b9050919050565b6109958161097a565b82525050565b60006020820190506109b0600083018461098c565b92915050565b6109bf816108f7565b82525050565b60006020820190506109da60008301846109b6565b92915050565b6109e98161097a565b81146109f457600080fd5b50565b600081359050610a06816109e0565b92915050565b600060208284031215610a2257610a216108f2565b5b6000610a30848285016109f7565b91505092915050565b600082825260208201905092915050565b7f4e6f74206f776e65720000000000000000000000000000000000000000000000600082015250565b6000610a80600983610a39565b9150610a8b82610a4a565b602082019050919050565b60006020820190508181036000830152610aaf81610a73565b9050919050565b6000604082019050610acb600083018561098c565b610ad860208301846109b6565b9392505050565b60008115159050919050565b610af481610adf565b8114610aff57600080fd5b50565b600081519050610b1181610aeb565b92915050565b600060208284031215610b2d57610b2c6108f2565b5b6000610b3b84828501610b02565b91505092915050565b7f5761676572206d757374206265203e2030000000000000000000000000000000600082015250565b6000610b7a601183610a39565b9150610b8582610b44565b602082019050919050565b60006020820190508181036000830152610ba981610b6d565b9050919050565b6000819050919050565b610bcb610bc6826108f7565b610bb0565b82525050565b60008160601b9050919050565b6000610be982610bd1565b9050919050565b6000610bfb82610bde565b9050919050565b610c13610c0e8261097a565b610bf0565b82525050565b6000610c258287610bba565b602082019150610c358286610bba565b602082019150610c458285610c02565b601482019150610c558284610bba565b60208201915081905095945050505050565b7f4e487b7100000000000000000000000000000000000000000000000000000000600052601260045260246000fd5b6000610ca1826108f7565b9150610cac836108f7565b925082610cbc57610cbb610c67565b5b828206905092915050565b7f4e487b7100000000000000000000000000000000000000000000000000000000600052601160045260246000fd5b6000610d01826108f7565b9150610d0c836108f7565b9250828202610d1a816108f7565b91508282048414831517610d3157610d30610cc7565b5b5092915050565b7f496e73756666696369656e7420636f6e74726163742062616c616e636520666f60008201527f72207061796f7574000000000000000000000000000000000000000000000000602082015250565b6000610d94602883610a39565b9150610d9f82610d38565b604082019050919050565b60006020820190508181036000830152610dc381610d87565b9050919050565b610dd381610adf565b82525050565b6000608082019050610dee60008301876109b6565b610dfb6020830186610dca565b610e0860408301856109b6565b610e1560608301846109b6565b95945050505050565b7f496e73756666696369656e742062616c616e6365000000000000000000000000600082015250565b6000610e54601483610a39565b9150610e5f82610e1e565b602082019050919050565b60006020820190508181036000830152610e8381610e47565b9050919050565b600081519050610e9981610901565b92915050565b600060208284031215610eb557610eb46108f2565b5b6000610ec384828501610e8a565b9150509291505056fea2646970667358221220778ed44d2f7c443b2fc3d3e4788c56c78d09609dddc42f2b588623b9a2f98b7864736f6c63430008140033",
  "linkReferences": {},
  "deployedLinkReferences": {}
}