{
  "_format": "hh-sol-artifact-1",
  "contractName": "HashplayGame",
  "sourceName": "contracts/HashplayGame.sol",
  "abi": [
    {
      "inputs": [
        {
          "internalType": "address",
          "name": "_hashplayToken",
          "type": "address"
        }
      ],
      "stateMutability": "nonpayable",
      "type": "constructor"
    },
    {
      "anonymous": false,
      "inputs": [
        {
          "indexed": true,
          "internalType": "address",
          "name": "player",
          "type": "address"
        },
        {
          "indexed": false,
          "internalType": "uint256",
          "name": "wager",
          "type": "uint256"
        },
        {
          "indexed": false,
          "internalType": "bool",
          "name": "won",
          "type": "bool"
        },
        {
          "indexed": false,
          "internalType": "uint256",
          "name": "hbarPayout",
          "type": "uint256"
        },
        {
          "indexed": false,
          "internalType": "uint256",
          "name": "hashplayReward",
          "type": "uint256"
        }
      ],
      "name": "GameResult",
      "type": "event"
    },
    {
      "stateMutability": "payable",
      "type": "fallback"
    },
    {
      "inputs": [],
      "name": "fundBankroll",
      "outputs": [],
      "stateMutability": "payable",
      "type": "function"
    },
    {
      "inputs": [],
      "name": "hashplayToken",
      "outputs": [
        {
          "internalType": "address",
          "name": "",
          "type": "address"
        }
      ],
      "stateMutability": "view",
      "type": "function"
    },
    {
      "inputs": [],
      "name": "owner",
      "outputs": [
        {
          "internalType": "address",
          "name": "",
          "type": "address"
        }
      ],
      "stateMutability": "view",
      "type": "function"
    },
    {
      "inputs": [],
      "name": "play",
      "outputs": [],
      "stateMutability": "payable",
      "type": "function"
    },
    {
      "inputs": [],
      "name": "selfAssociate",
      "outputs": [],
      "stateMutability": "nonpayable",
      "type": "function"
    },
    {
      "inputs": [
        {
          "internalType": "address",
          "name": "_newToken",
          "type": "address"
        }
      ],
      "name": "updateToken",
      "outputs": [],
      "stateMutability": "nonpayable",
      "type": "function"
    },
    {
      "inputs": [
        {
          "internalType": "uint256",
          "name": "amount",
          "type": "uint256"
        }
      ],
      "name": "withdrawHBAR",
      "outputs": [],
      "stateMutability": "nonpayable",
      "type": "function"
    },
    {
      "inputs": [
        {
          "internalType": "uint256",
          "name": "amount",
          "type": "uint256"
        }
      ],
      "name": "withdrawTokens",
      "outputs": [],
      "stateMutability": "nonpayable",
      "type": "function"
    },
    {
      "stateMutability": "payable",
      "type": "receive"
    }
  ],
  "bytecode": "0x60806040523480156200001157600080fd5b50604051620018f9380380620018f9833981810160405281019062000037919062000129565b336000806101000a81548173ffffffffffffffffffffffffffffffffffffffff021916908373ffffffffffffffffffffffffffffffffffffffff16021790555080600160006101000a81548173ffffffffffffffffffffffffffffffffffffffff021916908373ffffffffffffffffffffffffffffffffffffffff160217905550506200015b565b600080fd5b600073ffffffffffffffffffffffffffffffffffffffff82169050919050565b6000620000f182620000c4565b9050919050565b6200010381620000e4565b81146200010f57600080fd5b50565b6000815190506200012381620000f8565b92915050565b600060208284031215620001425762000141620000bf565b5b6000620001528482850162000112565b91505092915050565b61178e806200016b6000396000f3fe60806040526004361061007f5760003560e01c80638da5cb5b1161004e5780638da5cb5b1461010f57806393e84cd91461013a578063a9a0c7ff14610144578063d04f10f71461016d57610086565b8063315a095d146100885780633d311667146100b1578063753fab13146100dc5780637ad3def2146100e657610086565b3661008657005b005b34801561009457600080fd5b506100af60048036038101906100aa9190610dcd565b610184565b005b3480156100bd57600080fd5b506100c66103fa565b6040516100d39190610e3b565b60405180910390f35b6100e4610420565b005b3480156100f257600080fd5b5061010d60048036038101906101089190610e82565b6104b0565b005b34801561011b57600080fd5b50610124610582565b6040516101319190610e3b565b60405180910390f35b6101426105a6565b005b34801561015057600080fd5b5061016b60048036038101906101669190610dcd565b6107c2565b005b34801561017957600080fd5b50610182610964565b005b60008054906101000a900473ffffffffffffffffffffffffffffffffffffffff1673ffffffffffffffffffffffffffffffffffffffff163373ffffffffffffffffffffffffffffffffffffffff1614610212576040517f08c379a000000000000000000000000000000000000000000000000000000000815260040161020990610f0c565b60405180910390fd5b60008061016773ffffffffffffffffffffffffffffffffffffffff16600160009054906101000a900473ffffffffffffffffffffffffffffffffffffffff1660008054906101000a900473ffffffffffffffffffffffffffffffffffffffff168560405160240161028593929190610f48565b6040516020818303038152906040527f75fd1606000000000000000000000000000000000000000000000000000000007bffffffffffffffffffffffffffffffffffffffffffffffffffffffff19166020820180517bffffffffffffffffffffffffffffffffffffffffffffffffffffffff838183161783525050505060405161030f9190610ff0565b6000604051808303816000865af19150503d806000811461034c576040519150601f19603f3d011682016040523d82523d6000602084013e610351565b606091505b509150915081610396576040517f08c379a000000000000000000000000000000000000000000000000000000000815260040161038d90611053565b60405180910390fd5b6000818060200190518101906103ac91906110ac565b905060168160030b146103f4576040517f08c379a00000000000000000000000000000000000000000000000000000000081526004016103eb90611125565b60405180910390fd5b50505050565b600160009054906101000a900473ffffffffffffffffffffffffffffffffffffffff1681565b60008054906101000a900473ffffffffffffffffffffffffffffffffffffffff1673ffffffffffffffffffffffffffffffffffffffff163373ffffffffffffffffffffffffffffffffffffffff16146104ae576040517f08c379a00000000000000000000000000000000000000000000000000000000081526004016104a590610f0c565b60405180910390fd5b565b60008054906101000a900473ffffffffffffffffffffffffffffffffffffffff1673ffffffffffffffffffffffffffffffffffffffff163373ffffffffffffffffffffffffffffffffffffffff161461053e576040517f08c379a000000000000000000000000000000000000000000000000000000000815260040161053590610f0c565b60405180910390fd5b80600160006101000a81548173ffffffffffffffffffffffffffffffffffffffff021916908373ffffffffffffffffffffffffffffffffffffffff16021790555050565b60008054906101000a900473ffffffffffffffffffffffffffffffffffffffff1681565b600034116105e9576040517f08c379a00000000000000000000000000000000000000000000000000000000081526004016105e090611191565b60405180910390fd5b6000600242443334604051602001610604949392919061121a565b6040516020818303038152906040528051906020012060001c6106279190611297565b90506000600182149050600080821561074e5760023461064791906112f7565b91506101f43461065791906112f7565b90508147101561069c576040517f08c379a0000000000000000000000000000000000000000000000000000000008152600401610693906113ab565b60405180910390fd5b60003373ffffffffffffffffffffffffffffffffffffffff16836040516106c2906113f1565b60006040518083038185875af1925050503d80600081146106ff576040519150601f19603f3d011682016040523d82523d6000602084013e610704565b606091505b5050905080610748576040517f08c379a000000000000000000000000000000000000000000000000000000000815260040161073f90611452565b60405180910390fd5b5061075e565b60c83461075b91906112f7565b90505b6107683382610b29565b3373ffffffffffffffffffffffffffffffffffffffff167f2b93076a824b64ee22363ab116d83a15892b815507defda2629b97ed376d0d84348585856040516107b4949392919061149c565b60405180910390a250505050565b60008054906101000a900473ffffffffffffffffffffffffffffffffffffffff1673ffffffffffffffffffffffffffffffffffffffff163373ffffffffffffffffffffffffffffffffffffffff1614610850576040517f08c379a000000000000000000000000000000000000000000000000000000000815260040161084790610f0c565b60405180910390fd5b80471015610893576040517f08c379a000000000000000000000000000000000000000000000000000000000815260040161088a9061152d565b60405180910390fd5b60008060009054906101000a900473ffffffffffffffffffffffffffffffffffffffff1673ffffffffffffffffffffffffffffffffffffffff16826040516108da906113f1565b60006040518083038185875af1925050503d8060008114610917576040519150601f19603f3d011682016040523d82523d6000602084013e61091c565b606091505b5050905080610960576040517f08c379a000000000000000000000000000000000000000000000000000000000815260040161095790611599565b60405180910390fd5b5050565b60008061016773ffffffffffffffffffffffffffffffffffffffff1630600160009054906101000a900473ffffffffffffffffffffffffffffffffffffffff166040516024016109b59291906115b9565b6040516020818303038152906040527f49146bde000000000000000000000000000000000000000000000000000000007bffffffffffffffffffffffffffffffffffffffffffffffffffffffff19166020820180517bffffffffffffffffffffffffffffffffffffffffffffffffffffffff8381831617835250505050604051610a3f9190610ff0565b6000604051808303816000865af19150503d8060008114610a7c576040519150601f19603f3d011682016040523d82523d6000602084013e610a81565b606091505b509150915081610ac6576040517f08c379a0000000000000000000000000000000000000000000000000000000008152600401610abd9061162e565b60405180910390fd5b600081806020019051810190610adc919061167a565b905060168160070b14610b24576040517f08c379a0000000000000000000000000000000000000000000000000000000008152600401610b1b906116f3565b60405180910390fd5b505050565b6000810315610d8e5761016773ffffffffffffffffffffffffffffffffffffffff1682600160009054906101000a900473ffffffffffffffffffffffffffffffffffffffff16604051602401610b809291906115b9565b6040516020818303038152906040527f49146bde000000000000000000000000000000000000000000000000000000007bffffffffffffffffffffffffffffffffffffffffffffffffffffffff19166020820180517bffffffffffffffffffffffffffffffffffffffffffffffffffffffff8381831617835250505050604051610c0a9190610ff0565b6000604051808303816000865af19150503d8060008114610c47576040519150601f19603f3d011682016040523d82523d6000602084013e610c4c565b606091505b505050600081905060008061016773ffffffffffffffffffffffffffffffffffffffff16600160009054906101000a900473ffffffffffffffffffffffffffffffffffffffff16308786604051602401610ca99493929190611713565b6040516020818303038152906040527feca36917000000000000000000000000000000000000000000000000000000007bffffffffffffffffffffffffffffffffffffffffffffffffffffffff19166020820180517bffffffffffffffffffffffffffffffffffffffffffffffffffffffff8381831617835250505050604051610d339190610ff0565b6000604051808303816000865af19150503d8060008114610d70576040519150601f19603f3d011682016040523d82523d6000602084013e610d75565b606091505b5091509150818015610d8957506020815110155b505050505b5050565b600080fd5b6000819050919050565b610daa81610d97565b8114610db557600080fd5b50565b600081359050610dc781610da1565b92915050565b600060208284031215610de357610de2610d92565b5b6000610df184828501610db8565b91505092915050565b600073ffffffffffffffffffffffffffffffffffffffff82169050919050565b6000610e2582610dfa565b9050919050565b610e3581610e1a565b82525050565b6000602082019050610e506000830184610e2c565b92915050565b610e5f81610e1a565b8114610e6a57600080fd5b50565b600081359050610e7c81610e56565b92915050565b600060208284031215610e9857610e97610d92565b5b6000610ea684828501610e6d565b91505092915050565b600082825260208201905092915050565b7f4e6f74206f776e65720000000000000000000000000000000000000000000000600082015250565b6000610ef6600983610eaf565b9150610f0182610ec0565b602082019050919050565b60006020820190508181036000830152610f2581610ee9565b9050919050565b60008160070b9050919050565b610f4281610f2c565b82525050565b6000606082019050610f5d6000830186610e2c565b610f6a6020830185610e2c565b610f776040830184610f39565b949350505050565b600081519050919050565b600081905092915050565b60005b83811015610fb3578082015181840152602081019050610f98565b60008484015250505050565b6000610fca82610f7f565b610fd48185610f8a565b9350610fe4818560208601610f95565b80840191505092915050565b6000610ffc8284610fbf565b915081905092915050565b7f546f6b656e207769746864726177616c2063616c6c206661696c656400000000600082015250565b600061103d601c83610eaf565b915061104882611007565b602082019050919050565b6000602082019050818103600083015261106c81611030565b9050919050565b60008160030b9050919050565b61108981611073565b811461109457600080fd5b50565b6000815190506110a681611080565b92915050565b6000602082840312156110c2576110c1610d92565b5b60006110d084828501611097565b91505092915050565b7f4854533a20546f6b656e207769746864726177616c206661696c656400000000600082015250565b600061110f601c83610eaf565b915061111a826110d9565b602082019050919050565b6000602082019050818103600083015261113e81611102565b9050919050565b7f5761676572206d757374206265203e2030000000000000000000000000000000600082015250565b600061117b601183610eaf565b915061118682611145565b602082019050919050565b600060208201905081810360008301526111aa8161116e565b9050919050565b6000819050919050565b6111cc6111c782610d97565b6111b1565b82525050565b60008160601b9050919050565b60006111ea826111d2565b9050919050565b60006111fc826111df565b9050919050565b61121461120f82610e1a565b6111f1565b82525050565b600061122682876111bb565b60208201915061123682866111bb565b6020820191506112468285611203565b60148201915061125682846111bb565b60208201915081905095945050505050565b7f4e487b7100000000000000000000000000000000000000000000000000000000600052601260045260246000fd5b60006112a282610d97565b91506112ad83610d97565b9250826112bd576112bc611268565b5b828206905092915050565b7f4e487b7100000000000000000000000000000000000000000000000000000000600052601160045260246000fd5b600061130282610d97565b915061130d83610d97565b925082820261131b81610d97565b91508282048414831517611332576113316112c8565b5b5092915050565b7f496e73756666696369656e7420636f6e74726163742062616c616e636520666f60008201527f72207061796f7574000000000000000000000000000000000000000000000000602082015250565b6000611395602883610eaf565b91506113a082611339565b604082019050919050565b600060208201905081810360008301526113c481611388565b9050919050565b50565b60006113db600083610f8a565b91506113e6826113cb565b600082019050919050565b60006113fc826113ce565b9150819050919050565b7f48424152207061796f7574206661696c65640000000000000000000000000000600082015250565b600061143c601283610eaf565b915061144782611406565b602082019050919050565b6000602082019050818103600083015261146b8161142f565b9050919050565b61147b81610d97565b82525050565b60008115159050919050565b61149681611481565b82525050565b60006080820190506114b16000830187611472565b6114be602083018661148d565b6114cb6040830185611472565b6114d86060830184611472565b95945050505050565b7f496e73756666696369656e742062616c616e6365000000000000000000000000600082015250565b6000611517601483610eaf565b9150611522826114e1565b602082019050919050565b600060208201905081810360008301526115468161150a565b9050919050565b7f48424152207769746864726177616c206661696c656400000000000000000000600082015250565b6000611583601683610eaf565b915061158e8261154d565b602082019050919050565b600060208201905081810360008301526115b281611576565b9050919050565b60006040820190506115ce6000830185610e2c565b6115db6020830184610e2c565b9392505050565b7f4173736f63696174696f6e2063616c6c206661696c6564000000000000000000600082015250565b6000611618601783610eaf565b9150611623826115e2565b602082019050919050565b600060208201905081810360008301526116478161160b565b9050919050565b61165781610f2c565b811461166257600080fd5b50565b6000815190506116748161164e565b92915050565b6000602082840312156116905761168f610d92565b5b600061169e84828501611665565b91505092915050565b7f4854533a204173736f63696174696f6e206661696c6564000000000000000000600082015250565b60006116dd601783610eaf565b91506116e8826116a7565b602082019050919050565b6000602082019050818103600083015261170c816116d0565b9050919050565b60006080820190506117286000830187610e2c565b6117356020830186610e2c565b6117426040830185610e2c565b61174f6060830184610f39565b9594505050505056fea2646970667358221220add267e0774fb83991d6ecdf4b5f7d6e68ce4f714bf1b1f968c2914e0189066664736f6c63430008140033",
  "linkReferences": {},
  "deployedLinkReferences": {}
}